{
  "_format": "hh-sol-artifact-1",
  "contractName": "BlockID",
  "sourceName": "contracts/BlockID.sol",
  "abi": [
    {
      "inputs": [],
      "stateMutability": "nonpayable",
      "type": "constructor"
    },
    {
      "anonymous": false,
      "inputs": [
        {
          "indexed": true,
          "internalType": "address",
          "name": "creator",
          "type": "address"
        },
        {
          "indexed": true,
          "internalType": "uint256",
          "name": "id",
          "type": "uint256"
        },
        {
          "indexed": false,
          "internalType": "string",
          "name": "cid",
          "type": "string"
        },
        {
          "indexed": false,
          "internalType": "string",
          "name": "title",
          "type": "string"
        },
        {
          "indexed": false,
          "internalType": "uint256",
          "name": "timestamp",
          "type": "uint256"
        },
        {
          "indexed": false,
          "internalType": "uint256",
          "name": "fee",
          "type": "uint256"
        }
      ],
      "name": "BlockCreated",
      "type": "event"
    },
    {
      "inputs": [
        {
          "internalType": "uint256",
          "name": "",
          "type": "uint256"
        }
      ],
      "name": "blocks",
      "outputs": [
        {
          "internalType": "uint256",
          "name": "id",
          "type": "uint256"
        },
        {
          "internalType": "address",
          "name": "creator",
          "type": "address"
        },
        {
          "internalType": "string",
          "name": "cid",
          "type": "string"
        },
        {
          "internalType": "string",
          "name": "title",
          "type": "string"
        },
        {
          "internalType": "uint256",
          "name": "timestamp",
          "type": "uint256"
        },
        {
          "internalType": "uint256",
          "name": "fee",
          "type": "uint256"
        }
      ],
      "stateMutability": "view",
      "type": "function"
    },
    {
      "inputs": [
        {
          "internalType": "uint256",
          "name": "id",
          "type": "uint256"
        }
      ],
      "name": "getBlock",
      "outputs": [
        {
          "components": [
            {
              "internalType": "uint256",
              "name": "id",
              "type": "uint256"
            },
            {
              "internalType": "address",
              "name": "creator",
              "type": "address"
            },
            {
              "internalType": "string",
              "name": "cid",
              "type": "string"
            },
            {
              "internalType": "string",
              "name": "title",
              "type": "string"
            },
            {
              "internalType": "uint256",
              "name": "timestamp",
              "type": "uint256"
            },
            {
              "internalType": "uint256",
              "name": "fee",
              "type": "uint256"
            }
          ],
          "internalType": "struct BlockID.Block",
          "name": "",
          "type": "tuple"
        }
      ],
      "stateMutability": "view",
      "type": "function"
    },
    {
      "inputs": [],
      "name": "getContractBalance",
      "outputs": [
        {
          "internalType": "uint256",
          "name": "",
          "type": "uint256"
        }
      ],
      "stateMutability": "view",
      "type": "function"
    },
    {
      "inputs": [
        {
          "internalType": "address",
          "name": "user",
          "type": "address"
        }
      ],
      "name": "getMyId",
      "outputs": [
        {
          "internalType": "uint256",
          "name": "",
          "type": "uint256"
        }
      ],
      "stateMutability": "view",
      "type": "function"
    },
    {
      "inputs": [
        {
          "internalType": "address",
          "name": "",
          "type": "address"
        }
      ],
      "name": "hasBlockId",
      "outputs": [
        {
          "internalType": "bool",
          "name": "",
          "type": "bool"
        }
      ],
      "stateMutability": "view",
      "type": "function"
    },
    {
      "inputs": [
        {
          "internalType": "address",
          "name": "user",
          "type": "address"
        }
      ],
      "name": "hasRegistered",
      "outputs": [
        {
          "internalType": "bool",
          "name": "",
          "type": "bool"
        }
      ],
      "stateMutability": "view",
      "type": "function"
    },
    {
      "inputs": [],
      "name": "nextId",
      "outputs": [
        {
          "internalType": "uint256",
          "name": "",
          "type": "uint256"
        }
      ],
      "stateMutability": "view",
      "type": "function"
    },
    {
      "inputs": [
        {
          "internalType": "address",
          "name": "",
          "type": "address"
        }
      ],
      "name": "ownerToId",
      "outputs": [
        {
          "internalType": "uint256",
          "name": "",
          "type": "uint256"
        }
      ],
      "stateMutability": "view",
      "type": "function"
    },
    {
      "inputs": [
        {
          "internalType": "string",
          "name": "cid",
          "type": "string"
        },
        {
          "internalType": "string",
          "name": "title",
          "type": "string"
        }
      ],
      "name": "registerBlock",
      "outputs": [
        {
          "internalType": "uint256",
          "name": "",
          "type": "uint256"
        }
      ],
      "stateMutability": "payable",
      "type": "function"
    }
  ],
  "bytecode": "0x608060405234801561001057600080fd5b5060016000819055506113f5806100286000396000f3fe6080604052600436106100865760003560e01c80636f9fb98a116100595780636f9fb98a14610160578063a0d035261461018b578063e0dfa8fa146101c8578063e729e3a414610205578063f25b3f991461024257610086565b806304c075691461008b57806328ed8400146100c8578063360e2cb41461010557806361b8ce8c14610135575b600080fd5b34801561009757600080fd5b506100b260048036038101906100ad9190610a84565b610284565b6040516100bf9190610c21565b60405180910390f35b3480156100d457600080fd5b506100ef60048036038101906100ea9190610c6f565b610449565b6040516100fc9190610cab565b60405180910390f35b61011f600480360381019061011a9190610d2b565b610492565b60405161012c9190610cab565b60405180910390f35b34801561014157600080fd5b5061014a6107f0565b6040516101579190610cab565b60405180910390f35b34801561016c57600080fd5b506101756107f6565b6040516101829190610cab565b60405180910390f35b34801561019757600080fd5b506101b260048036038101906101ad9190610c6f565b6107fe565b6040516101bf9190610dc7565b60405180910390f35b3480156101d457600080fd5b506101ef60048036038101906101ea9190610c6f565b610854565b6040516101fc9190610dc7565b60405180910390f35b34801561021157600080fd5b5061022c60048036038101906102279190610c6f565b610874565b6040516102399190610cab565b60405180910390f35b34801561024e57600080fd5b5061026960048036038101906102649190610a84565b61088c565b60405161027b96959493929190610e3b565b60405180910390f35b61028c6109f8565b600160008381526020019081526020016000206040518060c0016040529081600082015481526020016001820160009054906101000a900473ffffffffffffffffffffffffffffffffffffffff1673ffffffffffffffffffffffffffffffffffffffff1673ffffffffffffffffffffffffffffffffffffffff16815260200160028201805461031a90610ed9565b80601f016020809104026020016040519081016040528092919081815260200182805461034690610ed9565b80156103935780601f1061036857610100808354040283529160200191610393565b820191906000526020600020905b81548152906001019060200180831161037657829003601f168201915b505050505081526020016003820180546103ac90610ed9565b80601f01602080910402602001604051908101604052809291908181526020018280546103d890610ed9565b80156104255780601f106103fa57610100808354040283529160200191610425565b820191906000526020600020905b81548152906001019060200180831161040857829003601f168201915b50505050508152602001600482015481526020016005820154815250509050919050565b6000600360008373ffffffffffffffffffffffffffffffffffffffff1673ffffffffffffffffffffffffffffffffffffffff168152602001908152602001600020549050919050565b60008034116104d6576040517f08c379a00000000000000000000000000000000000000000000000000000000081526004016104cd90610f7c565b60405180910390fd5b600260003373ffffffffffffffffffffffffffffffffffffffff1673ffffffffffffffffffffffffffffffffffffffff16815260200190815260200160002060009054906101000a900460ff1615610563576040517f08c379a000000000000000000000000000000000000000000000000000000000815260040161055a90610fe8565b60405180910390fd5b600080600081548092919061057790611037565b9190505590506040518060c001604052808281526020013373ffffffffffffffffffffffffffffffffffffffff16815260200187878080601f016020809104026020016040519081016040528093929190818152602001838380828437600081840152601f19601f82011690508083019250505050505050815260200185858080601f016020809104026020016040519081016040528093929190818152602001838380828437600081840152601f19601f82011690508083019250505050505050815260200142815260200134815250600160008381526020019081526020016000206000820151816000015560208201518160010160006101000a81548173ffffffffffffffffffffffffffffffffffffffff021916908373ffffffffffffffffffffffffffffffffffffffff16021790555060408201518160020190816106c1919061125a565b5060608201518160030190816106d7919061125a565b506080820151816004015560a082015181600501559050506001600260003373ffffffffffffffffffffffffffffffffffffffff1673ffffffffffffffffffffffffffffffffffffffff16815260200190815260200160002060006101000a81548160ff02191690831515021790555080600360003373ffffffffffffffffffffffffffffffffffffffff1673ffffffffffffffffffffffffffffffffffffffff16815260200190815260200160002081905550803373ffffffffffffffffffffffffffffffffffffffff167f5fbb9f698d469c6c4e572b1353f1fb23508e8d92f0f4f970fe655030c9cbbc6e8888888842346040516107dc96959493929190611368565b60405180910390a380915050949350505050565b60005481565b600047905090565b6000600260008373ffffffffffffffffffffffffffffffffffffffff1673ffffffffffffffffffffffffffffffffffffffff16815260200190815260200160002060009054906101000a900460ff169050919050565b60026020528060005260406000206000915054906101000a900460ff1681565b60036020528060005260406000206000915090505481565b60016020528060005260406000206000915090508060000154908060010160009054906101000a900473ffffffffffffffffffffffffffffffffffffffff16908060020180546108db90610ed9565b80601f016020809104026020016040519081016040528092919081815260200182805461090790610ed9565b80156109545780601f1061092957610100808354040283529160200191610954565b820191906000526020600020905b81548152906001019060200180831161093757829003601f168201915b50505050509080600301805461096990610ed9565b80601f016020809104026020016040519081016040528092919081815260200182805461099590610ed9565b80156109e25780601f106109b7576101008083540402835291602001916109e2565b820191906000526020600020905b8154815290600101906020018083116109c557829003601f168201915b5050505050908060040154908060050154905086565b6040518060c0016040528060008152602001600073ffffffffffffffffffffffffffffffffffffffff168152602001606081526020016060815260200160008152602001600081525090565b600080fd5b600080fd5b6000819050919050565b610a6181610a4e565b8114610a6c57600080fd5b50565b600081359050610a7e81610a58565b92915050565b600060208284031215610a9a57610a99610a44565b5b6000610aa884828501610a6f565b91505092915050565b610aba81610a4e565b82525050565b600073ffffffffffffffffffffffffffffffffffffffff82169050919050565b6000610aeb82610ac0565b9050919050565b610afb81610ae0565b82525050565b600081519050919050565b600082825260208201905092915050565b60005b83811015610b3b578082015181840152602081019050610b20565b60008484015250505050565b6000601f19601f8301169050919050565b6000610b6382610b01565b610b6d8185610b0c565b9350610b7d818560208601610b1d565b610b8681610b47565b840191505092915050565b600060c083016000830151610ba96000860182610ab1565b506020830151610bbc6020860182610af2565b5060408301518482036040860152610bd48282610b58565b91505060608301518482036060860152610bee8282610b58565b9150506080830151610c036080860182610ab1565b5060a0830151610c1660a0860182610ab1565b508091505092915050565b60006020820190508181036000830152610c3b8184610b91565b905092915050565b610c4c81610ae0565b8114610c5757600080fd5b50565b600081359050610c6981610c43565b92915050565b600060208284031215610c8557610c84610a44565b5b6000610c9384828501610c5a565b91505092915050565b610ca581610a4e565b82525050565b6000602082019050610cc06000830184610c9c565b92915050565b600080fd5b600080fd5b600080fd5b60008083601f840112610ceb57610cea610cc6565b5b8235905067ffffffffffffffff811115610d0857610d07610ccb565b5b602083019150836001820283011115610d2457610d23610cd0565b5b9250929050565b60008060008060408587031215610d4557610d44610a44565b5b600085013567ffffffffffffffff811115610d6357610d62610a49565b5b610d6f87828801610cd5565b9450945050602085013567ffffffffffffffff811115610d9257610d91610a49565b5b610d9e87828801610cd5565b925092505092959194509250565b60008115159050919050565b610dc181610dac565b82525050565b6000602082019050610ddc6000830184610db8565b92915050565b610deb81610ae0565b82525050565b600082825260208201905092915050565b6000610e0d82610b01565b610e178185610df1565b9350610e27818560208601610b1d565b610e3081610b47565b840191505092915050565b600060c082019050610e506000830189610c9c565b610e5d6020830188610de2565b8181036040830152610e6f8187610e02565b90508181036060830152610e838186610e02565b9050610e926080830185610c9c565b610e9f60a0830184610c9c565b979650505050505050565b7f4e487b7100000000000000000000000000000000000000000000000000000000600052602260045260246000fd5b60006002820490506001821680610ef157607f821691505b602082108103610f0457610f03610eaa565b5b50919050565b7f596f75206d7573742073656e6420736f6d6520457468657220746f207265676960008201527f73746572206120426c6f636b4944000000000000000000000000000000000000602082015250565b6000610f66602e83610df1565b9150610f7182610f0a565b604082019050919050565b60006020820190508181036000830152610f9581610f59565b9050919050565b7f4163636f756e7420616c726561647920686173206120426c6f636b4944000000600082015250565b6000610fd2601d83610df1565b9150610fdd82610f9c565b602082019050919050565b6000602082019050818103600083015261100181610fc5565b9050919050565b7f4e487b7100000000000000000000000000000000000000000000000000000000600052601160045260246000fd5b600061104282610a4e565b91507fffffffffffffffffffffffffffffffffffffffffffffffffffffffffffffffff820361107457611073611008565b5b600182019050919050565b7f4e487b7100000000000000000000000000000000000000000000000000000000600052604160045260246000fd5b60008190508160005260206000209050919050565b60006020601f8301049050919050565b600082821b905092915050565b6000600883026111107fffffffffffffffffffffffffffffffffffffffffffffffffffffffffffffffff826110d3565b61111a86836110d3565b95508019841693508086168417925050509392505050565b6000819050919050565b600061115761115261114d84610a4e565b611132565b610a4e565b9050919050565b6000819050919050565b6111718361113c565b61118561117d8261115e565b8484546110e0565b825550505050565b600090565b61119a61118d565b6111a5818484611168565b505050565b5b818110156111c9576111be600082611192565b6001810190506111ab565b5050565b601f82111561120e576111df816110ae565b6111e8846110c3565b810160208510156111f7578190505b61120b611203856110c3565b8301826111aa565b50505b505050565b600082821c905092915050565b600061123160001984600802611213565b1980831691505092915050565b600061124a8383611220565b9150826002028217905092915050565b61126382610b01565b67ffffffffffffffff81111561127c5761127b61107f565b5b6112868254610ed9565b6112918282856111cd565b600060209050601f8311600181146112c457600084156112b2578287015190505b6112bc858261123e565b865550611324565b601f1984166112d2866110ae565b60005b828110156112fa578489015182556001820191506020850194506020810190506112d5565b868310156113175784890151611313601f891682611220565b8355505b6001600288020188555050505b505050505050565b82818337600083830152505050565b60006113478385610df1565b935061135483858461132c565b61135d83610b47565b840190509392505050565b6000608082019050818103600083015261138381888a61133b565b9050818103602083015261139881868861133b565b90506113a76040830185610c9c565b6113b46060830184610c9c565b97965050505050505056fea264697066735822122077857614fa852c02b45a1dcc16521f5f461c64d68b4647596c593c6bcd679b2a64736f6c63430008120033",
  "linkReferences": {},
  "deployedLinkReferences": {}
}