{
	"BlockID.sol": {
		"BlockID": {
			"abi": [
				{
					"inputs": [],
					"stateMutability": "nonpayable",
					"type": "constructor"
				},
				{
					"anonymous": false,
					"inputs": [
						{
							"indexed": true,
							"internalType": "address",
							"name": "creator",
							"type": "address"
						},
						{
							"indexed": true,
							"internalType": "uint256",
							"name": "id",
							"type": "uint256"
						},
						{
							"indexed": false,
							"internalType": "string",
							"name": "cid",
							"type": "string"
						},
						{
							"indexed": false,
							"internalType": "string",
							"name": "title",
							"type": "string"
						},
						{
							"indexed": false,
							"internalType": "uint256",
							"name": "timestamp",
							"type": "uint256"
						},
						{
							"indexed": false,
							"internalType": "uint256",
							"name": "fee",
							"type": "uint256"
						}
					],
					"name": "BlockCreated",
					"type": "event"
				},
				{
					"inputs": [
						{
							"internalType": "uint256",
							"name": "",
							"type": "uint256"
						}
					],
					"name": "blocks",
					"outputs": [
						{
							"internalType": "uint256",
							"name": "id",
							"type": "uint256"
						},
						{
							"internalType": "address",
							"name": "creator",
							"type": "address"
						},
						{
							"internalType": "string",
							"name": "cid",
							"type": "string"
						},
						{
							"internalType": "string",
							"name": "title",
							"type": "string"
						},
						{
							"internalType": "uint256",
							"name": "timestamp",
							"type": "uint256"
						},
						{
							"internalType": "uint256",
							"name": "fee",
							"type": "uint256"
						}
					],
					"stateMutability": "view",
					"type": "function"
				},
				{
					"inputs": [
						{
							"internalType": "uint256",
							"name": "id",
							"type": "uint256"
						}
					],
					"name": "getBlock",
					"outputs": [
						{
							"components": [
								{
									"internalType": "uint256",
									"name": "id",
									"type": "uint256"
								},
								{
									"internalType": "address",
									"name": "creator",
									"type": "address"
								},
								{
									"internalType": "string",
									"name": "cid",
									"type": "string"
								},
								{
									"internalType": "string",
									"name": "title",
									"type": "string"
								},
								{
									"internalType": "uint256",
									"name": "timestamp",
									"type": "uint256"
								},
								{
									"internalType": "uint256",
									"name": "fee",
									"type": "uint256"
								}
							],
							"internalType": "struct BlockID.Block",
							"name": "",
							"type": "tuple"
						}
					],
					"stateMutability": "view",
					"type": "function"
				},
				{
					"inputs": [],
					"name": "getContractBalance",
					"outputs": [
						{
							"internalType": "uint256",
							"name": "",
							"type": "uint256"
						}
					],
					"stateMutability": "view",
					"type": "function"
				},
				{
					"inputs": [
						{
							"internalType": "address",
							"name": "user",
							"type": "address"
						}
					],
					"name": "getMyId",
					"outputs": [
						{
							"internalType": "uint256",
							"name": "",
							"type": "uint256"
						}
					],
					"stateMutability": "view",
					"type": "function"
				},
				{
					"inputs": [
						{
							"internalType": "address",
							"name": "",
							"type": "address"
						}
					],
					"name": "hasBlockId",
					"outputs": [
						{
							"internalType": "bool",
							"name": "",
							"type": "bool"
						}
					],
					"stateMutability": "view",
					"type": "function"
				},
				{
					"inputs": [
						{
							"internalType": "address",
							"name": "user",
							"type": "address"
						}
					],
					"name": "hasRegistered",
					"outputs": [
						{
							"internalType": "bool",
							"name": "",
							"type": "bool"
						}
					],
					"stateMutability": "view",
					"type": "function"
				},
				{
					"inputs": [],
					"name": "nextId",
					"outputs": [
						{
							"internalType": "uint256",
							"name": "",
							"type": "uint256"
						}
					],
					"stateMutability": "view",
					"type": "function"
				},
				{
					"inputs": [
						{
							"internalType": "address",
							"name": "",
							"type": "address"
						}
					],
					"name": "ownerToId",
					"outputs": [
						{
							"internalType": "uint256",
							"name": "",
							"type": "uint256"
						}
					],
					"stateMutability": "view",
					"type": "function"
				},
				{
					"inputs": [
						{
							"internalType": "string",
							"name": "cid",
							"type": "string"
						},
						{
							"internalType": "string",
							"name": "title",
							"type": "string"
						}
					],
					"name": "registerBlock",
					"outputs": [
						{
							"internalType": "uint256",
							"name": "",
							"type": "uint256"
						}
					],
					"stateMutability": "payable",
					"type": "function"
				}
			],
			"devdoc": {
				"kind": "dev",
				"methods": {},
				"version": 1
			},
			"evm": {
				"assembly": "    /* \"BlockID.sol\":58:1588  contract BlockID {... */\n  mstore(0x40, 0x80)\n    /* \"BlockID.sol\":541:582  constructor() {... */\n  callvalue\n  dup1\n  iszero\n  tag_1\n  jumpi\n  revert(0x00, 0x00)\ntag_1:\n  pop\n    /* \"BlockID.sol\":574:575  1 */\n  0x01\n    /* \"BlockID.sol\":565:571  nextId */\n  0x00\n    /* \"BlockID.sol\":565:575  nextId = 1 */\n  dup2\n  swap1\n  sstore\n  pop\n    /* \"BlockID.sol\":58:1588  contract BlockID {... */\n  dataSize(sub_0)\n  dup1\n  dataOffset(sub_0)\n  0x00\n  codecopy\n  0x00\n  return\nstop\n\nsub_0: assembly {\n        /* \"BlockID.sol\":58:1588  contract BlockID {... */\n      mstore(0x40, 0x80)\n      jumpi(tag_1, lt(calldatasize, 0x04))\n      shr(0xe0, calldataload(0x00))\n      dup1\n      0x6f9fb98a\n      gt\n      tag_11\n      jumpi\n      dup1\n      0x6f9fb98a\n      eq\n      tag_6\n      jumpi\n      dup1\n      0xa0d03526\n      eq\n      tag_7\n      jumpi\n      dup1\n      0xe0dfa8fa\n      eq\n      tag_8\n      jumpi\n      dup1\n      0xe729e3a4\n      eq\n      tag_9\n      jumpi\n      dup1\n      0xf25b3f99\n      eq\n      tag_10\n      jumpi\n      jump(tag_1)\n    tag_11:\n      dup1\n      0x04c07569\n      eq\n      tag_2\n      jumpi\n      dup1\n      0x28ed8400\n      eq\n      tag_3\n      jumpi\n      dup1\n      0x360e2cb4\n      eq\n      tag_4\n      jumpi\n      dup1\n      0x61b8ce8c\n      eq\n      tag_5\n      jumpi\n    tag_1:\n      revert(0x00, 0x00)\n        /* \"BlockID.sol\":1152:1253  function getBlock(uint256 id) external view returns (Block memory) {... */\n    tag_2:\n      callvalue\n      dup1\n      iszero\n      tag_12\n      jumpi\n      revert(0x00, 0x00)\n    tag_12:\n      pop\n      tag_13\n      0x04\n      dup1\n      calldatasize\n      sub\n      dup2\n      add\n      swap1\n      tag_14\n      swap2\n      swap1\n      tag_15\n      jump\t// in\n    tag_14:\n      tag_16\n      jump\t// in\n    tag_13:\n      mload(0x40)\n      tag_17\n      swap2\n      swap1\n      tag_18\n      jump\t// in\n    tag_17:\n      mload(0x40)\n      dup1\n      swap2\n      sub\n      swap1\n      return\n        /* \"BlockID.sol\":1484:1586  function getMyId(address user) external view returns (uint256) {... */\n    tag_3:\n      callvalue\n      dup1\n      iszero\n      tag_19\n      jumpi\n      revert(0x00, 0x00)\n    tag_19:\n      pop\n      tag_20\n      0x04\n      dup1\n      calldatasize\n      sub\n      dup2\n      add\n      swap1\n      tag_21\n      swap2\n      swap1\n      tag_22\n      jump\t// in\n    tag_21:\n      tag_23\n      jump\t// in\n    tag_20:\n      mload(0x40)\n      tag_24\n      swap2\n      swap1\n      tag_25\n      jump\t// in\n    tag_24:\n      mload(0x40)\n      dup1\n      swap2\n      sub\n      swap1\n      return\n        /* \"BlockID.sol\":588:1146  function registerBlock(string calldata cid, string calldata title) external payable returns (uint256) {... */\n    tag_4:\n      tag_26\n      0x04\n      dup1\n      calldatasize\n      sub\n      dup2\n      add\n      swap1\n      tag_27\n      swap2\n      swap1\n      tag_28\n      jump\t// in\n    tag_27:\n      tag_29\n      jump\t// in\n    tag_26:\n      mload(0x40)\n      tag_30\n      swap2\n      swap1\n      tag_25\n      jump\t// in\n    tag_30:\n      mload(0x40)\n      dup1\n      swap2\n      sub\n      swap1\n      return\n        /* \"BlockID.sol\":370:391  uint256 public nextId */\n    tag_5:\n      callvalue\n      dup1\n      iszero\n      tag_31\n      jumpi\n      revert(0x00, 0x00)\n    tag_31:\n      pop\n      tag_32\n      tag_33\n      jump\t// in\n    tag_32:\n      mload(0x40)\n      tag_34\n      swap2\n      swap1\n      tag_25\n      jump\t// in\n    tag_34:\n      mload(0x40)\n      dup1\n      swap2\n      sub\n      swap1\n      return\n        /* \"BlockID.sol\":1371:1478  function getContractBalance() external view returns (uint256) {... */\n    tag_6:\n      callvalue\n      dup1\n      iszero\n      tag_35\n      jumpi\n      revert(0x00, 0x00)\n    tag_35:\n      pop\n      tag_36\n      tag_37\n      jump\t// in\n    tag_36:\n      mload(0x40)\n      tag_38\n      swap2\n      swap1\n      tag_25\n      jump\t// in\n    tag_38:\n      mload(0x40)\n      dup1\n      swap2\n      sub\n      swap1\n      return\n        /* \"BlockID.sol\":1259:1365  function hasRegistered(address user) external view returns (bool) {... */\n    tag_7:\n      callvalue\n      dup1\n      iszero\n      tag_39\n      jumpi\n      revert(0x00, 0x00)\n    tag_39:\n      pop\n      tag_40\n      0x04\n      dup1\n      calldatasize\n      sub\n      dup2\n      add\n      swap1\n      tag_41\n      swap2\n      swap1\n      tag_22\n      jump\t// in\n    tag_41:\n      tag_42\n      jump\t// in\n    tag_40:\n      mload(0x40)\n      tag_43\n      swap2\n      swap1\n      tag_44\n      jump\t// in\n    tag_43:\n      mload(0x40)\n      dup1\n      swap2\n      sub\n      swap1\n      return\n        /* \"BlockID.sol\":442:484  mapping(address => bool) public hasBlockId */\n    tag_8:\n      callvalue\n      dup1\n      iszero\n      tag_45\n      jumpi\n      revert(0x00, 0x00)\n    tag_45:\n      pop\n      tag_46\n      0x04\n      dup1\n      calldatasize\n      sub\n      dup2\n      add\n      swap1\n      tag_47\n      swap2\n      swap1\n      tag_22\n      jump\t// in\n    tag_47:\n      tag_48\n      jump\t// in\n    tag_46:\n      mload(0x40)\n      tag_49\n      swap2\n      swap1\n      tag_44\n      jump\t// in\n    tag_49:\n      mload(0x40)\n      dup1\n      swap2\n      sub\n      swap1\n      return\n        /* \"BlockID.sol\":490:534  mapping(address => uint256) public ownerToId */\n    tag_9:\n      callvalue\n      dup1\n      iszero\n      tag_50\n      jumpi\n      revert(0x00, 0x00)\n    tag_50:\n      pop\n      tag_51\n      0x04\n      dup1\n      calldatasize\n      sub\n      dup2\n      add\n      swap1\n      tag_52\n      swap2\n      swap1\n      tag_22\n      jump\t// in\n    tag_52:\n      tag_53\n      jump\t// in\n    tag_51:\n      mload(0x40)\n      tag_54\n      swap2\n      swap1\n      tag_25\n      jump\t// in\n    tag_54:\n      mload(0x40)\n      dup1\n      swap2\n      sub\n      swap1\n      return\n        /* \"BlockID.sol\":397:436  mapping(uint256 => Block) public blocks */\n    tag_10:\n      callvalue\n      dup1\n      iszero\n      tag_55\n      jumpi\n      revert(0x00, 0x00)\n    tag_55:\n      pop\n      tag_56\n      0x04\n      dup1\n      calldatasize\n      sub\n      dup2\n      add\n      swap1\n      tag_57\n      swap2\n      swap1\n      tag_15\n      jump\t// in\n    tag_57:\n      tag_58\n      jump\t// in\n    tag_56:\n      mload(0x40)\n      tag_59\n      swap7\n      swap6\n      swap5\n      swap4\n      swap3\n      swap2\n      swap1\n      tag_60\n      jump\t// in\n    tag_59:\n      mload(0x40)\n      dup1\n      swap2\n      sub\n      swap1\n      return\n        /* \"BlockID.sol\":1152:1253  function getBlock(uint256 id) external view returns (Block memory) {... */\n    tag_16:\n        /* \"BlockID.sol\":1205:1217  Block memory */\n      tag_61\n      tag_62\n      jump\t// in\n    tag_61:\n        /* \"BlockID.sol\":1236:1242  blocks */\n      0x01\n        /* \"BlockID.sol\":1236:1246  blocks[id] */\n      0x00\n        /* \"BlockID.sol\":1243:1245  id */\n      dup4\n        /* \"BlockID.sol\":1236:1246  blocks[id] */\n      dup2\n      mstore\n      0x20\n      add\n      swap1\n      dup2\n      mstore\n      0x20\n      add\n      0x00\n      keccak256\n        /* \"BlockID.sol\":1229:1246  return blocks[id] */\n      mload(0x40)\n      dup1\n      0xc0\n      add\n      0x40\n      mstore\n      swap1\n      dup2\n      0x00\n      dup3\n      add\n      sload\n      dup2\n      mstore\n      0x20\n      add\n      0x01\n      dup3\n      add\n      0x00\n      swap1\n      sload\n      swap1\n      0x0100\n      exp\n      swap1\n      div\n      0xffffffffffffffffffffffffffffffffffffffff\n      and\n      0xffffffffffffffffffffffffffffffffffffffff\n      and\n      0xffffffffffffffffffffffffffffffffffffffff\n      and\n      dup2\n      mstore\n      0x20\n      add\n      0x02\n      dup3\n      add\n      dup1\n      sload\n      tag_64\n      swap1\n      tag_65\n      jump\t// in\n    tag_64:\n      dup1\n      0x1f\n      add\n      0x20\n      dup1\n      swap2\n      div\n      mul\n      0x20\n      add\n      mload(0x40)\n      swap1\n      dup2\n      add\n      0x40\n      mstore\n      dup1\n      swap3\n      swap2\n      swap1\n      dup2\n      dup2\n      mstore\n      0x20\n      add\n      dup3\n      dup1\n      sload\n      tag_66\n      swap1\n      tag_65\n      jump\t// in\n    tag_66:\n      dup1\n      iszero\n      tag_67\n      jumpi\n      dup1\n      0x1f\n      lt\n      tag_68\n      jumpi\n      0x0100\n      dup1\n      dup4\n      sload\n      div\n      mul\n      dup4\n      mstore\n      swap2\n      0x20\n      add\n      swap2\n      jump(tag_67)\n    tag_68:\n      dup3\n      add\n      swap2\n      swap1\n      0x00\n      mstore\n      keccak256(0x00, 0x20)\n      swap1\n    tag_69:\n      dup2\n      sload\n      dup2\n      mstore\n      swap1\n      0x01\n      add\n      swap1\n      0x20\n      add\n      dup1\n      dup4\n      gt\n      tag_69\n      jumpi\n      dup3\n      swap1\n      sub\n      0x1f\n      and\n      dup3\n      add\n      swap2\n    tag_67:\n      pop\n      pop\n      pop\n      pop\n      pop\n      dup2\n      mstore\n      0x20\n      add\n      0x03\n      dup3\n      add\n      dup1\n      sload\n      tag_70\n      swap1\n      tag_65\n      jump\t// in\n    tag_70:\n      dup1\n      0x1f\n      add\n      0x20\n      dup1\n      swap2\n      div\n      mul\n      0x20\n      add\n      mload(0x40)\n      swap1\n      dup2\n      add\n      0x40\n      mstore\n      dup1\n      swap3\n      swap2\n      swap1\n      dup2\n      dup2\n      mstore\n      0x20\n      add\n      dup3\n      dup1\n      sload\n      tag_71\n      swap1\n      tag_65\n      jump\t// in\n    tag_71:\n      dup1\n      iszero\n      tag_72\n      jumpi\n      dup1\n      0x1f\n      lt\n      tag_73\n      jumpi\n      0x0100\n      dup1\n      dup4\n      sload\n      div\n      mul\n      dup4\n      mstore\n      swap2\n      0x20\n      add\n      swap2\n      jump(tag_72)\n    tag_73:\n      dup3\n      add\n      swap2\n      swap1\n      0x00\n      mstore\n      keccak256(0x00, 0x20)\n      swap1\n    tag_74:\n      dup2\n      sload\n      dup2\n      mstore\n      swap1\n      0x01\n      add\n      swap1\n      0x20\n      add\n      dup1\n      dup4\n      gt\n      tag_74\n      jumpi\n      dup3\n      swap1\n      sub\n      0x1f\n      and\n      dup3\n      add\n      swap2\n    tag_72:\n      pop\n      pop\n      pop\n      pop\n      pop\n      dup2\n      mstore\n      0x20\n      add\n      0x04\n      dup3\n      add\n      sload\n      dup2\n      mstore\n      0x20\n      add\n      0x05\n      dup3\n      add\n      sload\n      dup2\n      mstore\n      pop\n      pop\n      swap1\n      pop\n        /* \"BlockID.sol\":1152:1253  function getBlock(uint256 id) external view returns (Block memory) {... */\n      swap2\n      swap1\n      pop\n      jump\t// out\n        /* \"BlockID.sol\":1484:1586  function getMyId(address user) external view returns (uint256) {... */\n    tag_23:\n        /* \"BlockID.sol\":1538:1545  uint256 */\n      0x00\n        /* \"BlockID.sol\":1564:1573  ownerToId */\n      0x03\n        /* \"BlockID.sol\":1564:1579  ownerToId[user] */\n      0x00\n        /* \"BlockID.sol\":1574:1578  user */\n      dup4\n        /* \"BlockID.sol\":1564:1579  ownerToId[user] */\n      0xffffffffffffffffffffffffffffffffffffffff\n      and\n      0xffffffffffffffffffffffffffffffffffffffff\n      and\n      dup2\n      mstore\n      0x20\n      add\n      swap1\n      dup2\n      mstore\n      0x20\n      add\n      0x00\n      keccak256\n      sload\n        /* \"BlockID.sol\":1557:1579  return ownerToId[user] */\n      swap1\n      pop\n        /* \"BlockID.sol\":1484:1586  function getMyId(address user) external view returns (uint256) {... */\n      swap2\n      swap1\n      pop\n      jump\t// out\n        /* \"BlockID.sol\":588:1146  function registerBlock(string calldata cid, string calldata title) external payable returns (uint256) {... */\n    tag_29:\n        /* \"BlockID.sol\":681:688  uint256 */\n      0x00\n        /* \"BlockID.sol\":720:721  0 */\n      0x00\n        /* \"BlockID.sol\":708:717  msg.value */\n      callvalue\n        /* \"BlockID.sol\":708:721  msg.value > 0 */\n      gt\n        /* \"BlockID.sol\":700:772  require(msg.value > 0, \"You must send some Ether to register a BlockID\") */\n      tag_77\n      jumpi\n      mload(0x40)\n      0x08c379a000000000000000000000000000000000000000000000000000000000\n      dup2\n      mstore\n      0x04\n      add\n      tag_78\n      swap1\n      tag_79\n      jump\t// in\n    tag_78:\n      mload(0x40)\n      dup1\n      swap2\n      sub\n      swap1\n      revert\n    tag_77:\n        /* \"BlockID.sol\":791:801  hasBlockId */\n      0x02\n        /* \"BlockID.sol\":791:813  hasBlockId[msg.sender] */\n      0x00\n        /* \"BlockID.sol\":802:812  msg.sender */\n      caller\n        /* \"BlockID.sol\":791:813  hasBlockId[msg.sender] */\n      0xffffffffffffffffffffffffffffffffffffffff\n      and\n      0xffffffffffffffffffffffffffffffffffffffff\n      and\n      dup2\n      mstore\n      0x20\n      add\n      swap1\n      dup2\n      mstore\n      0x20\n      add\n      0x00\n      keccak256\n      0x00\n      swap1\n      sload\n      swap1\n      0x0100\n      exp\n      swap1\n      div\n      0xff\n      and\n        /* \"BlockID.sol\":790:813  !hasBlockId[msg.sender] */\n      iszero\n        /* \"BlockID.sol\":782:847  require(!hasBlockId[msg.sender], \"Account already has a BlockID\") */\n      tag_80\n      jumpi\n      mload(0x40)\n      0x08c379a000000000000000000000000000000000000000000000000000000000\n      dup2\n      mstore\n      0x04\n      add\n      tag_81\n      swap1\n      tag_82\n      jump\t// in\n    tag_81:\n      mload(0x40)\n      dup1\n      swap2\n      sub\n      swap1\n      revert\n    tag_80:\n        /* \"BlockID.sol\":857:867  uint256 id */\n      0x00\n        /* \"BlockID.sol\":870:876  nextId */\n      0x00\n      0x00\n        /* \"BlockID.sol\":870:878  nextId++ */\n      dup2\n      sload\n      dup1\n      swap3\n      swap2\n      swap1\n      tag_83\n      swap1\n      tag_84\n      jump\t// in\n    tag_83:\n      swap2\n      swap1\n      pop\n      sstore\n        /* \"BlockID.sol\":857:878  uint256 id = nextId++ */\n      swap1\n      pop\n        /* \"BlockID.sol\":901:962  Block(id, msg.sender, cid, title, block.timestamp, msg.value) */\n      mload(0x40)\n      dup1\n      0xc0\n      add\n      0x40\n      mstore\n      dup1\n        /* \"BlockID.sol\":907:909  id */\n      dup3\n        /* \"BlockID.sol\":901:962  Block(id, msg.sender, cid, title, block.timestamp, msg.value) */\n      dup2\n      mstore\n      0x20\n      add\n        /* \"BlockID.sol\":911:921  msg.sender */\n      caller\n        /* \"BlockID.sol\":901:962  Block(id, msg.sender, cid, title, block.timestamp, msg.value) */\n      0xffffffffffffffffffffffffffffffffffffffff\n      and\n      dup2\n      mstore\n      0x20\n      add\n        /* \"BlockID.sol\":923:926  cid */\n      dup8\n      dup8\n        /* \"BlockID.sol\":901:962  Block(id, msg.sender, cid, title, block.timestamp, msg.value) */\n      dup1\n      dup1\n      0x1f\n      add\n      0x20\n      dup1\n      swap2\n      div\n      mul\n      0x20\n      add\n      mload(0x40)\n      swap1\n      dup2\n      add\n      0x40\n      mstore\n      dup1\n      swap4\n      swap3\n      swap2\n      swap1\n      dup2\n      dup2\n      mstore\n      0x20\n      add\n      dup4\n      dup4\n      dup1\n      dup3\n      dup5\n      calldatacopy\n      0x00\n      dup2\n      dup5\n      add\n      mstore\n      not(0x1f)\n      0x1f\n      dup3\n      add\n      and\n      swap1\n      pop\n      dup1\n      dup4\n      add\n      swap3\n      pop\n      pop\n      pop\n      pop\n      pop\n      pop\n      pop\n      dup2\n      mstore\n      0x20\n      add\n        /* \"BlockID.sol\":928:933  title */\n      dup6\n      dup6\n        /* \"BlockID.sol\":901:962  Block(id, msg.sender, cid, title, block.timestamp, msg.value) */\n      dup1\n      dup1\n      0x1f\n      add\n      0x20\n      dup1\n      swap2\n      div\n      mul\n      0x20\n      add\n      mload(0x40)\n      swap1\n      dup2\n      add\n      0x40\n      mstore\n      dup1\n      swap4\n      swap3\n      swap2\n      swap1\n      dup2\n      dup2\n      mstore\n      0x20\n      add\n      dup4\n      dup4\n      dup1\n      dup3\n      dup5\n      calldatacopy\n      0x00\n      dup2\n      dup5\n      add\n      mstore\n      not(0x1f)\n      0x1f\n      dup3\n      add\n      and\n      swap1\n      pop\n      dup1\n      dup4\n      add\n      swap3\n      pop\n      pop\n      pop\n      pop\n      pop\n      pop\n      pop\n      dup2\n      mstore\n      0x20\n      add\n        /* \"BlockID.sol\":935:950  block.timestamp */\n      timestamp\n        /* \"BlockID.sol\":901:962  Block(id, msg.sender, cid, title, block.timestamp, msg.value) */\n      dup2\n      mstore\n      0x20\n      add\n        /* \"BlockID.sol\":952:961  msg.value */\n      callvalue\n        /* \"BlockID.sol\":901:962  Block(id, msg.sender, cid, title, block.timestamp, msg.value) */\n      dup2\n      mstore\n      pop\n        /* \"BlockID.sol\":888:894  blocks */\n      0x01\n        /* \"BlockID.sol\":888:898  blocks[id] */\n      0x00\n        /* \"BlockID.sol\":895:897  id */\n      dup4\n        /* \"BlockID.sol\":888:898  blocks[id] */\n      dup2\n      mstore\n      0x20\n      add\n      swap1\n      dup2\n      mstore\n      0x20\n      add\n      0x00\n      keccak256\n        /* \"BlockID.sol\":888:962  blocks[id] = Block(id, msg.sender, cid, title, block.timestamp, msg.value) */\n      0x00\n      dup3\n      add\n      mload\n      dup2\n      0x00\n      add\n      sstore\n      0x20\n      dup3\n      add\n      mload\n      dup2\n      0x01\n      add\n      exp(0x0100, 0x00)\n      dup2\n      sload\n      dup2\n      0xffffffffffffffffffffffffffffffffffffffff\n      mul\n      not\n      and\n      swap1\n      dup4\n      0xffffffffffffffffffffffffffffffffffffffff\n      and\n      mul\n      or\n      swap1\n      sstore\n      pop\n      0x40\n      dup3\n      add\n      mload\n      dup2\n      0x02\n      add\n      swap1\n      dup2\n      tag_85\n      swap2\n      swap1\n      tag_86\n      jump\t// in\n    tag_85:\n      pop\n      0x60\n      dup3\n      add\n      mload\n      dup2\n      0x03\n      add\n      swap1\n      dup2\n      tag_87\n      swap2\n      swap1\n      tag_86\n      jump\t// in\n    tag_87:\n      pop\n      0x80\n      dup3\n      add\n      mload\n      dup2\n      0x04\n      add\n      sstore\n      0xa0\n      dup3\n      add\n      mload\n      dup2\n      0x05\n      add\n      sstore\n      swap1\n      pop\n      pop\n        /* \"BlockID.sol\":997:1001  true */\n      0x01\n        /* \"BlockID.sol\":972:982  hasBlockId */\n      0x02\n        /* \"BlockID.sol\":972:994  hasBlockId[msg.sender] */\n      0x00\n        /* \"BlockID.sol\":983:993  msg.sender */\n      caller\n        /* \"BlockID.sol\":972:994  hasBlockId[msg.sender] */\n      0xffffffffffffffffffffffffffffffffffffffff\n      and\n      0xffffffffffffffffffffffffffffffffffffffff\n      and\n      dup2\n      mstore\n      0x20\n      add\n      swap1\n      dup2\n      mstore\n      0x20\n      add\n      0x00\n      keccak256\n      0x00\n        /* \"BlockID.sol\":972:1001  hasBlockId[msg.sender] = true */\n      0x0100\n      exp\n      dup2\n      sload\n      dup2\n      0xff\n      mul\n      not\n      and\n      swap1\n      dup4\n      iszero\n      iszero\n      mul\n      or\n      swap1\n      sstore\n      pop\n        /* \"BlockID.sol\":1035:1037  id */\n      dup1\n        /* \"BlockID.sol\":1011:1020  ownerToId */\n      0x03\n        /* \"BlockID.sol\":1011:1032  ownerToId[msg.sender] */\n      0x00\n        /* \"BlockID.sol\":1021:1031  msg.sender */\n      caller\n        /* \"BlockID.sol\":1011:1032  ownerToId[msg.sender] */\n      0xffffffffffffffffffffffffffffffffffffffff\n      and\n      0xffffffffffffffffffffffffffffffffffffffff\n      and\n      dup2\n      mstore\n      0x20\n      add\n      swap1\n      dup2\n      mstore\n      0x20\n      add\n      0x00\n      keccak256\n        /* \"BlockID.sol\":1011:1037  ownerToId[msg.sender] = id */\n      dup2\n      swap1\n      sstore\n      pop\n        /* \"BlockID.sol\":1077:1079  id */\n      dup1\n        /* \"BlockID.sol\":1065:1075  msg.sender */\n      caller\n        /* \"BlockID.sol\":1052:1120  BlockCreated(msg.sender, id, cid, title, block.timestamp, msg.value) */\n      0xffffffffffffffffffffffffffffffffffffffff\n      and\n      0x5fbb9f698d469c6c4e572b1353f1fb23508e8d92f0f4f970fe655030c9cbbc6e\n        /* \"BlockID.sol\":1081:1084  cid */\n      dup9\n      dup9\n        /* \"BlockID.sol\":1086:1091  title */\n      dup9\n      dup9\n        /* \"BlockID.sol\":1093:1108  block.timestamp */\n      timestamp\n        /* \"BlockID.sol\":1110:1119  msg.value */\n      callvalue\n        /* \"BlockID.sol\":1052:1120  BlockCreated(msg.sender, id, cid, title, block.timestamp, msg.value) */\n      mload(0x40)\n      tag_88\n      swap7\n      swap6\n      swap5\n      swap4\n      swap3\n      swap2\n      swap1\n      tag_89\n      jump\t// in\n    tag_88:\n      mload(0x40)\n      dup1\n      swap2\n      sub\n      swap1\n      log3\n        /* \"BlockID.sol\":1137:1139  id */\n      dup1\n        /* \"BlockID.sol\":1130:1139  return id */\n      swap2\n      pop\n      pop\n        /* \"BlockID.sol\":588:1146  function registerBlock(string calldata cid, string calldata title) external payable returns (uint256) {... */\n      swap5\n      swap4\n      pop\n      pop\n      pop\n      pop\n      jump\t// out\n        /* \"BlockID.sol\":370:391  uint256 public nextId */\n    tag_33:\n      sload(0x00)\n      dup2\n      jump\t// out\n        /* \"BlockID.sol\":1371:1478  function getContractBalance() external view returns (uint256) {... */\n    tag_37:\n        /* \"BlockID.sol\":1424:1431  uint256 */\n      0x00\n        /* \"BlockID.sol\":1450:1471  address(this).balance */\n      selfbalance\n        /* \"BlockID.sol\":1443:1471  return address(this).balance */\n      swap1\n      pop\n        /* \"BlockID.sol\":1371:1478  function getContractBalance() external view returns (uint256) {... */\n      swap1\n      jump\t// out\n        /* \"BlockID.sol\":1259:1365  function hasRegistered(address user) external view returns (bool) {... */\n    tag_42:\n        /* \"BlockID.sol\":1319:1323  bool */\n      0x00\n        /* \"BlockID.sol\":1342:1352  hasBlockId */\n      0x02\n        /* \"BlockID.sol\":1342:1358  hasBlockId[user] */\n      0x00\n        /* \"BlockID.sol\":1353:1357  user */\n      dup4\n        /* \"BlockID.sol\":1342:1358  hasBlockId[user] */\n      0xffffffffffffffffffffffffffffffffffffffff\n      and\n      0xffffffffffffffffffffffffffffffffffffffff\n      and\n      dup2\n      mstore\n      0x20\n      add\n      swap1\n      dup2\n      mstore\n      0x20\n      add\n      0x00\n      keccak256\n      0x00\n      swap1\n      sload\n      swap1\n      0x0100\n      exp\n      swap1\n      div\n      0xff\n      and\n        /* \"BlockID.sol\":1335:1358  return hasBlockId[user] */\n      swap1\n      pop\n        /* \"BlockID.sol\":1259:1365  function hasRegistered(address user) external view returns (bool) {... */\n      swap2\n      swap1\n      pop\n      jump\t// out\n        /* \"BlockID.sol\":442:484  mapping(address => bool) public hasBlockId */\n    tag_48:\n      mstore(0x20, 0x02)\n      dup1\n      0x00\n      mstore\n      keccak256(0x00, 0x40)\n      0x00\n      swap2\n      pop\n      sload\n      swap1\n      0x0100\n      exp\n      swap1\n      div\n      0xff\n      and\n      dup2\n      jump\t// out\n        /* \"BlockID.sol\":490:534  mapping(address => uint256) public ownerToId */\n    tag_53:\n      mstore(0x20, 0x03)\n      dup1\n      0x00\n      mstore\n      keccak256(0x00, 0x40)\n      0x00\n      swap2\n      pop\n      swap1\n      pop\n      sload\n      dup2\n      jump\t// out\n        /* \"BlockID.sol\":397:436  mapping(uint256 => Block) public blocks */\n    tag_58:\n      mstore(0x20, 0x01)\n      dup1\n      0x00\n      mstore\n      keccak256(0x00, 0x40)\n      0x00\n      swap2\n      pop\n      swap1\n      pop\n      dup1\n      0x00\n      add\n      sload\n      swap1\n      dup1\n      0x01\n      add\n      0x00\n      swap1\n      sload\n      swap1\n      0x0100\n      exp\n      swap1\n      div\n      0xffffffffffffffffffffffffffffffffffffffff\n      and\n      swap1\n      dup1\n      0x02\n      add\n      dup1\n      sload\n      tag_92\n      swap1\n      tag_65\n      jump\t// in\n    tag_92:\n      dup1\n      0x1f\n      add\n      0x20\n      dup1\n      swap2\n      div\n      mul\n      0x20\n      add\n      mload(0x40)\n      swap1\n      dup2\n      add\n      0x40\n      mstore\n      dup1\n      swap3\n      swap2\n      swap1\n      dup2\n      dup2\n      mstore\n      0x20\n      add\n      dup3\n      dup1\n      sload\n      tag_93\n      swap1\n      tag_65\n      jump\t// in\n    tag_93:\n      dup1\n      iszero\n      tag_94\n      jumpi\n      dup1\n      0x1f\n      lt\n      tag_95\n      jumpi\n      0x0100\n      dup1\n      dup4\n      sload\n      div\n      mul\n      dup4\n      mstore\n      swap2\n      0x20\n      add\n      swap2\n      jump(tag_94)\n    tag_95:\n      dup3\n      add\n      swap2\n      swap1\n      0x00\n      mstore\n      keccak256(0x00, 0x20)\n      swap1\n    tag_96:\n      dup2\n      sload\n      dup2\n      mstore\n      swap1\n      0x01\n      add\n      swap1\n      0x20\n      add\n      dup1\n      dup4\n      gt\n      tag_96\n      jumpi\n      dup3\n      swap1\n      sub\n      0x1f\n      and\n      dup3\n      add\n      swap2\n    tag_94:\n      pop\n      pop\n      pop\n      pop\n      pop\n      swap1\n      dup1\n      0x03\n      add\n      dup1\n      sload\n      tag_97\n      swap1\n      tag_65\n      jump\t// in\n    tag_97:\n      dup1\n      0x1f\n      add\n      0x20\n      dup1\n      swap2\n      div\n      mul\n      0x20\n      add\n      mload(0x40)\n      swap1\n      dup2\n      add\n      0x40\n      mstore\n      dup1\n      swap3\n      swap2\n      swap1\n      dup2\n      dup2\n      mstore\n      0x20\n      add\n      dup3\n      dup1\n      sload\n      tag_98\n      swap1\n      tag_65\n      jump\t// in\n    tag_98:\n      dup1\n      iszero\n      tag_99\n      jumpi\n      dup1\n      0x1f\n      lt\n      tag_100\n      jumpi\n      0x0100\n      dup1\n      dup4\n      sload\n      div\n      mul\n      dup4\n      mstore\n      swap2\n      0x20\n      add\n      swap2\n      jump(tag_99)\n    tag_100:\n      dup3\n      add\n      swap2\n      swap1\n      0x00\n      mstore\n      keccak256(0x00, 0x20)\n      swap1\n    tag_101:\n      dup2\n      sload\n      dup2\n      mstore\n      swap1\n      0x01\n      add\n      swap1\n      0x20\n      add\n      dup1\n      dup4\n      gt\n      tag_101\n      jumpi\n      dup3\n      swap1\n      sub\n      0x1f\n      and\n      dup3\n      add\n      swap2\n    tag_99:\n      pop\n      pop\n      pop\n      pop\n      pop\n      swap1\n      dup1\n      0x04\n      add\n      sload\n      swap1\n      dup1\n      0x05\n      add\n      sload\n      swap1\n      pop\n      dup7\n      jump\t// out\n    tag_62:\n      mload(0x40)\n      dup1\n      0xc0\n      add\n      0x40\n      mstore\n      dup1\n      0x00\n      dup2\n      mstore\n      0x20\n      add\n      and(0xffffffffffffffffffffffffffffffffffffffff, 0x00)\n      dup2\n      mstore\n      0x20\n      add\n      0x60\n      dup2\n      mstore\n      0x20\n      add\n      0x60\n      dup2\n      mstore\n      0x20\n      add\n      0x00\n      dup2\n      mstore\n      0x20\n      add\n      0x00\n      dup2\n      mstore\n      pop\n      swap1\n      jump\t// out\n        /* \"#utility.yul\":88:205   */\n    tag_103:\n        /* \"#utility.yul\":197:198   */\n      0x00\n        /* \"#utility.yul\":194:195   */\n      0x00\n        /* \"#utility.yul\":187:199   */\n      revert\n        /* \"#utility.yul\":211:328   */\n    tag_104:\n        /* \"#utility.yul\":320:321   */\n      0x00\n        /* \"#utility.yul\":317:318   */\n      0x00\n        /* \"#utility.yul\":310:322   */\n      revert\n        /* \"#utility.yul\":334:411   */\n    tag_105:\n        /* \"#utility.yul\":371:378   */\n      0x00\n        /* \"#utility.yul\":400:405   */\n      dup2\n        /* \"#utility.yul\":389:405   */\n      swap1\n      pop\n        /* \"#utility.yul\":334:411   */\n      swap2\n      swap1\n      pop\n      jump\t// out\n        /* \"#utility.yul\":417:539   */\n    tag_106:\n        /* \"#utility.yul\":490:514   */\n      tag_160\n        /* \"#utility.yul\":508:513   */\n      dup2\n        /* \"#utility.yul\":490:514   */\n      tag_105\n      jump\t// in\n    tag_160:\n        /* \"#utility.yul\":483:488   */\n      dup2\n        /* \"#utility.yul\":480:515   */\n      eq\n        /* \"#utility.yul\":470:533   */\n      tag_161\n      jumpi\n        /* \"#utility.yul\":529:530   */\n      0x00\n        /* \"#utility.yul\":526:527   */\n      0x00\n        /* \"#utility.yul\":519:531   */\n      revert\n        /* \"#utility.yul\":470:533   */\n    tag_161:\n        /* \"#utility.yul\":417:539   */\n      pop\n      jump\t// out\n        /* \"#utility.yul\":545:684   */\n    tag_107:\n        /* \"#utility.yul\":591:596   */\n      0x00\n        /* \"#utility.yul\":629:635   */\n      dup2\n        /* \"#utility.yul\":616:636   */\n      calldataload\n        /* \"#utility.yul\":607:636   */\n      swap1\n      pop\n        /* \"#utility.yul\":645:678   */\n      tag_163\n        /* \"#utility.yul\":672:677   */\n      dup2\n        /* \"#utility.yul\":645:678   */\n      tag_106\n      jump\t// in\n    tag_163:\n        /* \"#utility.yul\":545:684   */\n      swap3\n      swap2\n      pop\n      pop\n      jump\t// out\n        /* \"#utility.yul\":690:1019   */\n    tag_15:\n        /* \"#utility.yul\":749:755   */\n      0x00\n        /* \"#utility.yul\":798:800   */\n      0x20\n        /* \"#utility.yul\":786:795   */\n      dup3\n        /* \"#utility.yul\":777:784   */\n      dup5\n        /* \"#utility.yul\":773:796   */\n      sub\n        /* \"#utility.yul\":769:801   */\n      slt\n        /* \"#utility.yul\":766:885   */\n      iszero\n      tag_165\n      jumpi\n        /* \"#utility.yul\":804:883   */\n      tag_166\n      tag_103\n      jump\t// in\n    tag_166:\n        /* \"#utility.yul\":766:885   */\n    tag_165:\n        /* \"#utility.yul\":924:925   */\n      0x00\n        /* \"#utility.yul\":949:1002   */\n      tag_167\n        /* \"#utility.yul\":994:1001   */\n      dup5\n        /* \"#utility.yul\":985:991   */\n      dup3\n        /* \"#utility.yul\":974:983   */\n      dup6\n        /* \"#utility.yul\":970:992   */\n      add\n        /* \"#utility.yul\":949:1002   */\n      tag_107\n      jump\t// in\n    tag_167:\n        /* \"#utility.yul\":939:1002   */\n      swap2\n      pop\n        /* \"#utility.yul\":895:1012   */\n      pop\n        /* \"#utility.yul\":690:1019   */\n      swap3\n      swap2\n      pop\n      pop\n      jump\t// out\n        /* \"#utility.yul\":1025:1133   */\n    tag_108:\n        /* \"#utility.yul\":1102:1126   */\n      tag_169\n        /* \"#utility.yul\":1120:1125   */\n      dup2\n        /* \"#utility.yul\":1102:1126   */\n      tag_105\n      jump\t// in\n    tag_169:\n        /* \"#utility.yul\":1097:1100   */\n      dup3\n        /* \"#utility.yul\":1090:1127   */\n      mstore\n        /* \"#utility.yul\":1025:1133   */\n      pop\n      pop\n      jump\t// out\n        /* \"#utility.yul\":1139:1265   */\n    tag_109:\n        /* \"#utility.yul\":1176:1183   */\n      0x00\n        /* \"#utility.yul\":1216:1258   */\n      0xffffffffffffffffffffffffffffffffffffffff\n        /* \"#utility.yul\":1209:1214   */\n      dup3\n        /* \"#utility.yul\":1205:1259   */\n      and\n        /* \"#utility.yul\":1194:1259   */\n      swap1\n      pop\n        /* \"#utility.yul\":1139:1265   */\n      swap2\n      swap1\n      pop\n      jump\t// out\n        /* \"#utility.yul\":1271:1367   */\n    tag_110:\n        /* \"#utility.yul\":1308:1315   */\n      0x00\n        /* \"#utility.yul\":1337:1361   */\n      tag_172\n        /* \"#utility.yul\":1355:1360   */\n      dup3\n        /* \"#utility.yul\":1337:1361   */\n      tag_109\n      jump\t// in\n    tag_172:\n        /* \"#utility.yul\":1326:1361   */\n      swap1\n      pop\n        /* \"#utility.yul\":1271:1367   */\n      swap2\n      swap1\n      pop\n      jump\t// out\n        /* \"#utility.yul\":1373:1481   */\n    tag_111:\n        /* \"#utility.yul\":1450:1474   */\n      tag_174\n        /* \"#utility.yul\":1468:1473   */\n      dup2\n        /* \"#utility.yul\":1450:1474   */\n      tag_110\n      jump\t// in\n    tag_174:\n        /* \"#utility.yul\":1445:1448   */\n      dup3\n        /* \"#utility.yul\":1438:1475   */\n      mstore\n        /* \"#utility.yul\":1373:1481   */\n      pop\n      pop\n      jump\t// out\n        /* \"#utility.yul\":1487:1586   */\n    tag_112:\n        /* \"#utility.yul\":1539:1545   */\n      0x00\n        /* \"#utility.yul\":1573:1578   */\n      dup2\n        /* \"#utility.yul\":1567:1579   */\n      mload\n        /* \"#utility.yul\":1557:1579   */\n      swap1\n      pop\n        /* \"#utility.yul\":1487:1586   */\n      swap2\n      swap1\n      pop\n      jump\t// out\n        /* \"#utility.yul\":1592:1751   */\n    tag_113:\n        /* \"#utility.yul\":1666:1677   */\n      0x00\n        /* \"#utility.yul\":1700:1706   */\n      dup3\n        /* \"#utility.yul\":1695:1698   */\n      dup3\n        /* \"#utility.yul\":1688:1707   */\n      mstore\n        /* \"#utility.yul\":1740:1744   */\n      0x20\n        /* \"#utility.yul\":1735:1738   */\n      dup3\n        /* \"#utility.yul\":1731:1745   */\n      add\n        /* \"#utility.yul\":1716:1745   */\n      swap1\n      pop\n        /* \"#utility.yul\":1592:1751   */\n      swap3\n      swap2\n      pop\n      pop\n      jump\t// out\n        /* \"#utility.yul\":1757:1896   */\n    tag_114:\n        /* \"#utility.yul\":1846:1852   */\n      dup3\n        /* \"#utility.yul\":1841:1844   */\n      dup2\n        /* \"#utility.yul\":1836:1839   */\n      dup4\n        /* \"#utility.yul\":1830:1853   */\n      mcopy\n        /* \"#utility.yul\":1887:1888   */\n      0x00\n        /* \"#utility.yul\":1878:1884   */\n      dup4\n        /* \"#utility.yul\":1873:1876   */\n      dup4\n        /* \"#utility.yul\":1869:1885   */\n      add\n        /* \"#utility.yul\":1862:1889   */\n      mstore\n        /* \"#utility.yul\":1757:1896   */\n      pop\n      pop\n      pop\n      jump\t// out\n        /* \"#utility.yul\":1902:2004   */\n    tag_115:\n        /* \"#utility.yul\":1943:1949   */\n      0x00\n        /* \"#utility.yul\":1994:1996   */\n      0x1f\n        /* \"#utility.yul\":1990:1997   */\n      not\n        /* \"#utility.yul\":1985:1987   */\n      0x1f\n        /* \"#utility.yul\":1978:1983   */\n      dup4\n        /* \"#utility.yul\":1974:1988   */\n      add\n        /* \"#utility.yul\":1970:1998   */\n      and\n        /* \"#utility.yul\":1960:1998   */\n      swap1\n      pop\n        /* \"#utility.yul\":1902:2004   */\n      swap2\n      swap1\n      pop\n      jump\t// out\n        /* \"#utility.yul\":2010:2367   */\n    tag_116:\n        /* \"#utility.yul\":2088:2091   */\n      0x00\n        /* \"#utility.yul\":2116:2155   */\n      tag_180\n        /* \"#utility.yul\":2149:2154   */\n      dup3\n        /* \"#utility.yul\":2116:2155   */\n      tag_112\n      jump\t// in\n    tag_180:\n        /* \"#utility.yul\":2171:2232   */\n      tag_181\n        /* \"#utility.yul\":2225:2231   */\n      dup2\n        /* \"#utility.yul\":2220:2223   */\n      dup6\n        /* \"#utility.yul\":2171:2232   */\n      tag_113\n      jump\t// in\n    tag_181:\n        /* \"#utility.yul\":2164:2232   */\n      swap4\n      pop\n        /* \"#utility.yul\":2241:2306   */\n      tag_182\n        /* \"#utility.yul\":2299:2305   */\n      dup2\n        /* \"#utility.yul\":2294:2297   */\n      dup6\n        /* \"#utility.yul\":2287:2291   */\n      0x20\n        /* \"#utility.yul\":2280:2285   */\n      dup7\n        /* \"#utility.yul\":2276:2292   */\n      add\n        /* \"#utility.yul\":2241:2306   */\n      tag_114\n      jump\t// in\n    tag_182:\n        /* \"#utility.yul\":2331:2360   */\n      tag_183\n        /* \"#utility.yul\":2353:2359   */\n      dup2\n        /* \"#utility.yul\":2331:2360   */\n      tag_115\n      jump\t// in\n    tag_183:\n        /* \"#utility.yul\":2326:2329   */\n      dup5\n        /* \"#utility.yul\":2322:2361   */\n      add\n        /* \"#utility.yul\":2315:2361   */\n      swap2\n      pop\n        /* \"#utility.yul\":2092:2367   */\n      pop\n        /* \"#utility.yul\":2010:2367   */\n      swap3\n      swap2\n      pop\n      pop\n      jump\t// out\n        /* \"#utility.yul\":2425:3795   */\n    tag_117:\n        /* \"#utility.yul\":2536:2539   */\n      0x00\n        /* \"#utility.yul\":2572:2576   */\n      0xc0\n        /* \"#utility.yul\":2567:2570   */\n      dup4\n        /* \"#utility.yul\":2563:2577   */\n      add\n        /* \"#utility.yul\":2657:2661   */\n      0x00\n        /* \"#utility.yul\":2650:2655   */\n      dup4\n        /* \"#utility.yul\":2646:2662   */\n      add\n        /* \"#utility.yul\":2640:2663   */\n      mload\n        /* \"#utility.yul\":2676:2739   */\n      tag_185\n        /* \"#utility.yul\":2733:2737   */\n      0x00\n        /* \"#utility.yul\":2728:2731   */\n      dup7\n        /* \"#utility.yul\":2724:2738   */\n      add\n        /* \"#utility.yul\":2710:2722   */\n      dup3\n        /* \"#utility.yul\":2676:2739   */\n      tag_108\n      jump\t// in\n    tag_185:\n        /* \"#utility.yul\":2587:2749   */\n      pop\n        /* \"#utility.yul\":2834:2838   */\n      0x20\n        /* \"#utility.yul\":2827:2832   */\n      dup4\n        /* \"#utility.yul\":2823:2839   */\n      add\n        /* \"#utility.yul\":2817:2840   */\n      mload\n        /* \"#utility.yul\":2853:2916   */\n      tag_186\n        /* \"#utility.yul\":2910:2914   */\n      0x20\n        /* \"#utility.yul\":2905:2908   */\n      dup7\n        /* \"#utility.yul\":2901:2915   */\n      add\n        /* \"#utility.yul\":2887:2899   */\n      dup3\n        /* \"#utility.yul\":2853:2916   */\n      tag_111\n      jump\t// in\n    tag_186:\n        /* \"#utility.yul\":2759:2926   */\n      pop\n        /* \"#utility.yul\":3007:3011   */\n      0x40\n        /* \"#utility.yul\":3000:3005   */\n      dup4\n        /* \"#utility.yul\":2996:3012   */\n      add\n        /* \"#utility.yul\":2990:3013   */\n      mload\n        /* \"#utility.yul\":3060:3063   */\n      dup5\n        /* \"#utility.yul\":3054:3058   */\n      dup3\n        /* \"#utility.yul\":3050:3064   */\n      sub\n        /* \"#utility.yul\":3043:3047   */\n      0x40\n        /* \"#utility.yul\":3038:3041   */\n      dup7\n        /* \"#utility.yul\":3034:3048   */\n      add\n        /* \"#utility.yul\":3027:3065   */\n      mstore\n        /* \"#utility.yul\":3086:3159   */\n      tag_187\n        /* \"#utility.yul\":3154:3158   */\n      dup3\n        /* \"#utility.yul\":3140:3152   */\n      dup3\n        /* \"#utility.yul\":3086:3159   */\n      tag_116\n      jump\t// in\n    tag_187:\n        /* \"#utility.yul\":3078:3159   */\n      swap2\n      pop\n        /* \"#utility.yul\":2936:3170   */\n      pop\n        /* \"#utility.yul\":3253:3257   */\n      0x60\n        /* \"#utility.yul\":3246:3251   */\n      dup4\n        /* \"#utility.yul\":3242:3258   */\n      add\n        /* \"#utility.yul\":3236:3259   */\n      mload\n        /* \"#utility.yul\":3306:3309   */\n      dup5\n        /* \"#utility.yul\":3300:3304   */\n      dup3\n        /* \"#utility.yul\":3296:3310   */\n      sub\n        /* \"#utility.yul\":3289:3293   */\n      0x60\n        /* \"#utility.yul\":3284:3287   */\n      dup7\n        /* \"#utility.yul\":3280:3294   */\n      add\n        /* \"#utility.yul\":3273:3311   */\n      mstore\n        /* \"#utility.yul\":3332:3405   */\n      tag_188\n        /* \"#utility.yul\":3400:3404   */\n      dup3\n        /* \"#utility.yul\":3386:3398   */\n      dup3\n        /* \"#utility.yul\":3332:3405   */\n      tag_116\n      jump\t// in\n    tag_188:\n        /* \"#utility.yul\":3324:3405   */\n      swap2\n      pop\n        /* \"#utility.yul\":3180:3416   */\n      pop\n        /* \"#utility.yul\":3503:3507   */\n      0x80\n        /* \"#utility.yul\":3496:3501   */\n      dup4\n        /* \"#utility.yul\":3492:3508   */\n      add\n        /* \"#utility.yul\":3486:3509   */\n      mload\n        /* \"#utility.yul\":3522:3585   */\n      tag_189\n        /* \"#utility.yul\":3579:3583   */\n      0x80\n        /* \"#utility.yul\":3574:3577   */\n      dup7\n        /* \"#utility.yul\":3570:3584   */\n      add\n        /* \"#utility.yul\":3556:3568   */\n      dup3\n        /* \"#utility.yul\":3522:3585   */\n      tag_108\n      jump\t// in\n    tag_189:\n        /* \"#utility.yul\":3426:3595   */\n      pop\n        /* \"#utility.yul\":3676:3680   */\n      0xa0\n        /* \"#utility.yul\":3669:3674   */\n      dup4\n        /* \"#utility.yul\":3665:3681   */\n      add\n        /* \"#utility.yul\":3659:3682   */\n      mload\n        /* \"#utility.yul\":3695:3758   */\n      tag_190\n        /* \"#utility.yul\":3752:3756   */\n      0xa0\n        /* \"#utility.yul\":3747:3750   */\n      dup7\n        /* \"#utility.yul\":3743:3757   */\n      add\n        /* \"#utility.yul\":3729:3741   */\n      dup3\n        /* \"#utility.yul\":3695:3758   */\n      tag_108\n      jump\t// in\n    tag_190:\n        /* \"#utility.yul\":3605:3768   */\n      pop\n        /* \"#utility.yul\":3785:3789   */\n      dup1\n        /* \"#utility.yul\":3778:3789   */\n      swap2\n      pop\n        /* \"#utility.yul\":2541:3795   */\n      pop\n        /* \"#utility.yul\":2425:3795   */\n      swap3\n      swap2\n      pop\n      pop\n      jump\t// out\n        /* \"#utility.yul\":3801:4158   */\n    tag_18:\n        /* \"#utility.yul\":3936:3940   */\n      0x00\n        /* \"#utility.yul\":3974:3976   */\n      0x20\n        /* \"#utility.yul\":3963:3972   */\n      dup3\n        /* \"#utility.yul\":3959:3977   */\n      add\n        /* \"#utility.yul\":3951:3977   */\n      swap1\n      pop\n        /* \"#utility.yul\":4023:4032   */\n      dup2\n        /* \"#utility.yul\":4017:4021   */\n      dup2\n        /* \"#utility.yul\":4013:4033   */\n      sub\n        /* \"#utility.yul\":4009:4010   */\n      0x00\n        /* \"#utility.yul\":3998:4007   */\n      dup4\n        /* \"#utility.yul\":3994:4011   */\n      add\n        /* \"#utility.yul\":3987:4034   */\n      mstore\n        /* \"#utility.yul\":4051:4151   */\n      tag_192\n        /* \"#utility.yul\":4146:4150   */\n      dup2\n        /* \"#utility.yul\":4137:4143   */\n      dup5\n        /* \"#utility.yul\":4051:4151   */\n      tag_117\n      jump\t// in\n    tag_192:\n        /* \"#utility.yul\":4043:4151   */\n      swap1\n      pop\n        /* \"#utility.yul\":3801:4158   */\n      swap3\n      swap2\n      pop\n      pop\n      jump\t// out\n        /* \"#utility.yul\":4164:4286   */\n    tag_118:\n        /* \"#utility.yul\":4237:4261   */\n      tag_194\n        /* \"#utility.yul\":4255:4260   */\n      dup2\n        /* \"#utility.yul\":4237:4261   */\n      tag_110\n      jump\t// in\n    tag_194:\n        /* \"#utility.yul\":4230:4235   */\n      dup2\n        /* \"#utility.yul\":4227:4262   */\n      eq\n        /* \"#utility.yul\":4217:4280   */\n      tag_195\n      jumpi\n        /* \"#utility.yul\":4276:4277   */\n      0x00\n        /* \"#utility.yul\":4273:4274   */\n      0x00\n        /* \"#utility.yul\":4266:4278   */\n      revert\n        /* \"#utility.yul\":4217:4280   */\n    tag_195:\n        /* \"#utility.yul\":4164:4286   */\n      pop\n      jump\t// out\n        /* \"#utility.yul\":4292:4431   */\n    tag_119:\n        /* \"#utility.yul\":4338:4343   */\n      0x00\n        /* \"#utility.yul\":4376:4382   */\n      dup2\n        /* \"#utility.yul\":4363:4383   */\n      calldataload\n        /* \"#utility.yul\":4354:4383   */\n      swap1\n      pop\n        /* \"#utility.yul\":4392:4425   */\n      tag_197\n        /* \"#utility.yul\":4419:4424   */\n      dup2\n        /* \"#utility.yul\":4392:4425   */\n      tag_118\n      jump\t// in\n    tag_197:\n        /* \"#utility.yul\":4292:4431   */\n      swap3\n      swap2\n      pop\n      pop\n      jump\t// out\n        /* \"#utility.yul\":4437:4766   */\n    tag_22:\n        /* \"#utility.yul\":4496:4502   */\n      0x00\n        /* \"#utility.yul\":4545:4547   */\n      0x20\n        /* \"#utility.yul\":4533:4542   */\n      dup3\n        /* \"#utility.yul\":4524:4531   */\n      dup5\n        /* \"#utility.yul\":4520:4543   */\n      sub\n        /* \"#utility.yul\":4516:4548   */\n      slt\n        /* \"#utility.yul\":4513:4632   */\n      iszero\n      tag_199\n      jumpi\n        /* \"#utility.yul\":4551:4630   */\n      tag_200\n      tag_103\n      jump\t// in\n    tag_200:\n        /* \"#utility.yul\":4513:4632   */\n    tag_199:\n        /* \"#utility.yul\":4671:4672   */\n      0x00\n        /* \"#utility.yul\":4696:4749   */\n      tag_201\n        /* \"#utility.yul\":4741:4748   */\n      dup5\n        /* \"#utility.yul\":4732:4738   */\n      dup3\n        /* \"#utility.yul\":4721:4730   */\n      dup6\n        /* \"#utility.yul\":4717:4739   */\n      add\n        /* \"#utility.yul\":4696:4749   */\n      tag_119\n      jump\t// in\n    tag_201:\n        /* \"#utility.yul\":4686:4749   */\n      swap2\n      pop\n        /* \"#utility.yul\":4642:4759   */\n      pop\n        /* \"#utility.yul\":4437:4766   */\n      swap3\n      swap2\n      pop\n      pop\n      jump\t// out\n        /* \"#utility.yul\":4772:4890   */\n    tag_120:\n        /* \"#utility.yul\":4859:4883   */\n      tag_203\n        /* \"#utility.yul\":4877:4882   */\n      dup2\n        /* \"#utility.yul\":4859:4883   */\n      tag_105\n      jump\t// in\n    tag_203:\n        /* \"#utility.yul\":4854:4857   */\n      dup3\n        /* \"#utility.yul\":4847:4884   */\n      mstore\n        /* \"#utility.yul\":4772:4890   */\n      pop\n      pop\n      jump\t// out\n        /* \"#utility.yul\":4896:5118   */\n    tag_25:\n        /* \"#utility.yul\":4989:4993   */\n      0x00\n        /* \"#utility.yul\":5027:5029   */\n      0x20\n        /* \"#utility.yul\":5016:5025   */\n      dup3\n        /* \"#utility.yul\":5012:5030   */\n      add\n        /* \"#utility.yul\":5004:5030   */\n      swap1\n      pop\n        /* \"#utility.yul\":5040:5111   */\n      tag_205\n        /* \"#utility.yul\":5108:5109   */\n      0x00\n        /* \"#utility.yul\":5097:5106   */\n      dup4\n        /* \"#utility.yul\":5093:5110   */\n      add\n        /* \"#utility.yul\":5084:5090   */\n      dup5\n        /* \"#utility.yul\":5040:5111   */\n      tag_120\n      jump\t// in\n    tag_205:\n        /* \"#utility.yul\":4896:5118   */\n      swap3\n      swap2\n      pop\n      pop\n      jump\t// out\n        /* \"#utility.yul\":5124:5241   */\n    tag_121:\n        /* \"#utility.yul\":5233:5234   */\n      0x00\n        /* \"#utility.yul\":5230:5231   */\n      0x00\n        /* \"#utility.yul\":5223:5235   */\n      revert\n        /* \"#utility.yul\":5247:5364   */\n    tag_122:\n        /* \"#utility.yul\":5356:5357   */\n      0x00\n        /* \"#utility.yul\":5353:5354   */\n      0x00\n        /* \"#utility.yul\":5346:5358   */\n      revert\n        /* \"#utility.yul\":5370:5487   */\n    tag_123:\n        /* \"#utility.yul\":5479:5480   */\n      0x00\n        /* \"#utility.yul\":5476:5477   */\n      0x00\n        /* \"#utility.yul\":5469:5481   */\n      revert\n        /* \"#utility.yul\":5507:6060   */\n    tag_124:\n        /* \"#utility.yul\":5565:5573   */\n      0x00\n        /* \"#utility.yul\":5575:5581   */\n      0x00\n        /* \"#utility.yul\":5625:5628   */\n      dup4\n        /* \"#utility.yul\":5618:5622   */\n      0x1f\n        /* \"#utility.yul\":5610:5616   */\n      dup5\n        /* \"#utility.yul\":5606:5623   */\n      add\n        /* \"#utility.yul\":5602:5629   */\n      slt\n        /* \"#utility.yul\":5592:5714   */\n      tag_210\n      jumpi\n        /* \"#utility.yul\":5633:5712   */\n      tag_211\n      tag_121\n      jump\t// in\n    tag_211:\n        /* \"#utility.yul\":5592:5714   */\n    tag_210:\n        /* \"#utility.yul\":5746:5752   */\n      dup3\n        /* \"#utility.yul\":5733:5753   */\n      calldataload\n        /* \"#utility.yul\":5723:5753   */\n      swap1\n      pop\n        /* \"#utility.yul\":5776:5794   */\n      0xffffffffffffffff\n        /* \"#utility.yul\":5768:5774   */\n      dup2\n        /* \"#utility.yul\":5765:5795   */\n      gt\n        /* \"#utility.yul\":5762:5879   */\n      iszero\n      tag_212\n      jumpi\n        /* \"#utility.yul\":5798:5877   */\n      tag_213\n      tag_122\n      jump\t// in\n    tag_213:\n        /* \"#utility.yul\":5762:5879   */\n    tag_212:\n        /* \"#utility.yul\":5912:5916   */\n      0x20\n        /* \"#utility.yul\":5904:5910   */\n      dup4\n        /* \"#utility.yul\":5900:5917   */\n      add\n        /* \"#utility.yul\":5888:5917   */\n      swap2\n      pop\n        /* \"#utility.yul\":5966:5969   */\n      dup4\n        /* \"#utility.yul\":5958:5962   */\n      0x01\n        /* \"#utility.yul\":5950:5956   */\n      dup3\n        /* \"#utility.yul\":5946:5963   */\n      mul\n        /* \"#utility.yul\":5936:5944   */\n      dup4\n        /* \"#utility.yul\":5932:5964   */\n      add\n        /* \"#utility.yul\":5929:5970   */\n      gt\n        /* \"#utility.yul\":5926:6054   */\n      iszero\n      tag_214\n      jumpi\n        /* \"#utility.yul\":5973:6052   */\n      tag_215\n      tag_123\n      jump\t// in\n    tag_215:\n        /* \"#utility.yul\":5926:6054   */\n    tag_214:\n        /* \"#utility.yul\":5507:6060   */\n      swap3\n      pop\n      swap3\n      swap1\n      pop\n      jump\t// out\n        /* \"#utility.yul\":6066:6940   */\n    tag_28:\n        /* \"#utility.yul\":6158:6164   */\n      0x00\n        /* \"#utility.yul\":6166:6172   */\n      0x00\n        /* \"#utility.yul\":6174:6180   */\n      0x00\n        /* \"#utility.yul\":6182:6188   */\n      0x00\n        /* \"#utility.yul\":6231:6233   */\n      0x40\n        /* \"#utility.yul\":6219:6228   */\n      dup6\n        /* \"#utility.yul\":6210:6217   */\n      dup8\n        /* \"#utility.yul\":6206:6229   */\n      sub\n        /* \"#utility.yul\":6202:6234   */\n      slt\n        /* \"#utility.yul\":6199:6318   */\n      iszero\n      tag_217\n      jumpi\n        /* \"#utility.yul\":6237:6316   */\n      tag_218\n      tag_103\n      jump\t// in\n    tag_218:\n        /* \"#utility.yul\":6199:6318   */\n    tag_217:\n        /* \"#utility.yul\":6385:6386   */\n      0x00\n        /* \"#utility.yul\":6374:6383   */\n      dup6\n        /* \"#utility.yul\":6370:6387   */\n      add\n        /* \"#utility.yul\":6357:6388   */\n      calldataload\n        /* \"#utility.yul\":6415:6433   */\n      0xffffffffffffffff\n        /* \"#utility.yul\":6407:6413   */\n      dup2\n        /* \"#utility.yul\":6404:6434   */\n      gt\n        /* \"#utility.yul\":6401:6518   */\n      iszero\n      tag_219\n      jumpi\n        /* \"#utility.yul\":6437:6516   */\n      tag_220\n      tag_104\n      jump\t// in\n    tag_220:\n        /* \"#utility.yul\":6401:6518   */\n    tag_219:\n        /* \"#utility.yul\":6550:6615   */\n      tag_221\n        /* \"#utility.yul\":6607:6614   */\n      dup8\n        /* \"#utility.yul\":6598:6604   */\n      dup3\n        /* \"#utility.yul\":6587:6596   */\n      dup9\n        /* \"#utility.yul\":6583:6605   */\n      add\n        /* \"#utility.yul\":6550:6615   */\n      tag_124\n      jump\t// in\n    tag_221:\n        /* \"#utility.yul\":6532:6615   */\n      swap5\n      pop\n      swap5\n      pop\n        /* \"#utility.yul\":6328:6625   */\n      pop\n        /* \"#utility.yul\":6692:6694   */\n      0x20\n        /* \"#utility.yul\":6681:6690   */\n      dup6\n        /* \"#utility.yul\":6677:6695   */\n      add\n        /* \"#utility.yul\":6664:6696   */\n      calldataload\n        /* \"#utility.yul\":6723:6741   */\n      0xffffffffffffffff\n        /* \"#utility.yul\":6715:6721   */\n      dup2\n        /* \"#utility.yul\":6712:6742   */\n      gt\n        /* \"#utility.yul\":6709:6826   */\n      iszero\n      tag_222\n      jumpi\n        /* \"#utility.yul\":6745:6824   */\n      tag_223\n      tag_104\n      jump\t// in\n    tag_223:\n        /* \"#utility.yul\":6709:6826   */\n    tag_222:\n        /* \"#utility.yul\":6858:6923   */\n      tag_224\n        /* \"#utility.yul\":6915:6922   */\n      dup8\n        /* \"#utility.yul\":6906:6912   */\n      dup3\n        /* \"#utility.yul\":6895:6904   */\n      dup9\n        /* \"#utility.yul\":6891:6913   */\n      add\n        /* \"#utility.yul\":6858:6923   */\n      tag_124\n      jump\t// in\n    tag_224:\n        /* \"#utility.yul\":6840:6923   */\n      swap3\n      pop\n      swap3\n      pop\n        /* \"#utility.yul\":6635:6933   */\n      pop\n        /* \"#utility.yul\":6066:6940   */\n      swap3\n      swap6\n      swap2\n      swap5\n      pop\n      swap3\n      pop\n      jump\t// out\n        /* \"#utility.yul\":6946:7036   */\n    tag_125:\n        /* \"#utility.yul\":6980:6987   */\n      0x00\n        /* \"#utility.yul\":7023:7028   */\n      dup2\n        /* \"#utility.yul\":7016:7029   */\n      iszero\n        /* \"#utility.yul\":7009:7030   */\n      iszero\n        /* \"#utility.yul\":6998:7030   */\n      swap1\n      pop\n        /* \"#utility.yul\":6946:7036   */\n      swap2\n      swap1\n      pop\n      jump\t// out\n        /* \"#utility.yul\":7042:7151   */\n    tag_126:\n        /* \"#utility.yul\":7123:7144   */\n      tag_227\n        /* \"#utility.yul\":7138:7143   */\n      dup2\n        /* \"#utility.yul\":7123:7144   */\n      tag_125\n      jump\t// in\n    tag_227:\n        /* \"#utility.yul\":7118:7121   */\n      dup3\n        /* \"#utility.yul\":7111:7145   */\n      mstore\n        /* \"#utility.yul\":7042:7151   */\n      pop\n      pop\n      jump\t// out\n        /* \"#utility.yul\":7157:7367   */\n    tag_44:\n        /* \"#utility.yul\":7244:7248   */\n      0x00\n        /* \"#utility.yul\":7282:7284   */\n      0x20\n        /* \"#utility.yul\":7271:7280   */\n      dup3\n        /* \"#utility.yul\":7267:7285   */\n      add\n        /* \"#utility.yul\":7259:7285   */\n      swap1\n      pop\n        /* \"#utility.yul\":7295:7360   */\n      tag_229\n        /* \"#utility.yul\":7357:7358   */\n      0x00\n        /* \"#utility.yul\":7346:7355   */\n      dup4\n        /* \"#utility.yul\":7342:7359   */\n      add\n        /* \"#utility.yul\":7333:7339   */\n      dup5\n        /* \"#utility.yul\":7295:7360   */\n      tag_126\n      jump\t// in\n    tag_229:\n        /* \"#utility.yul\":7157:7367   */\n      swap3\n      swap2\n      pop\n      pop\n      jump\t// out\n        /* \"#utility.yul\":7373:7491   */\n    tag_127:\n        /* \"#utility.yul\":7460:7484   */\n      tag_231\n        /* \"#utility.yul\":7478:7483   */\n      dup2\n        /* \"#utility.yul\":7460:7484   */\n      tag_110\n      jump\t// in\n    tag_231:\n        /* \"#utility.yul\":7455:7458   */\n      dup3\n        /* \"#utility.yul\":7448:7485   */\n      mstore\n        /* \"#utility.yul\":7373:7491   */\n      pop\n      pop\n      jump\t// out\n        /* \"#utility.yul\":7497:7666   */\n    tag_128:\n        /* \"#utility.yul\":7581:7592   */\n      0x00\n        /* \"#utility.yul\":7615:7621   */\n      dup3\n        /* \"#utility.yul\":7610:7613   */\n      dup3\n        /* \"#utility.yul\":7603:7622   */\n      mstore\n        /* \"#utility.yul\":7655:7659   */\n      0x20\n        /* \"#utility.yul\":7650:7653   */\n      dup3\n        /* \"#utility.yul\":7646:7660   */\n      add\n        /* \"#utility.yul\":7631:7660   */\n      swap1\n      pop\n        /* \"#utility.yul\":7497:7666   */\n      swap3\n      swap2\n      pop\n      pop\n      jump\t// out\n        /* \"#utility.yul\":7672:8049   */\n    tag_129:\n        /* \"#utility.yul\":7760:7763   */\n      0x00\n        /* \"#utility.yul\":7788:7827   */\n      tag_234\n        /* \"#utility.yul\":7821:7826   */\n      dup3\n        /* \"#utility.yul\":7788:7827   */\n      tag_112\n      jump\t// in\n    tag_234:\n        /* \"#utility.yul\":7843:7914   */\n      tag_235\n        /* \"#utility.yul\":7907:7913   */\n      dup2\n        /* \"#utility.yul\":7902:7905   */\n      dup6\n        /* \"#utility.yul\":7843:7914   */\n      tag_128\n      jump\t// in\n    tag_235:\n        /* \"#utility.yul\":7836:7914   */\n      swap4\n      pop\n        /* \"#utility.yul\":7923:7988   */\n      tag_236\n        /* \"#utility.yul\":7981:7987   */\n      dup2\n        /* \"#utility.yul\":7976:7979   */\n      dup6\n        /* \"#utility.yul\":7969:7973   */\n      0x20\n        /* \"#utility.yul\":7962:7967   */\n      dup7\n        /* \"#utility.yul\":7958:7974   */\n      add\n        /* \"#utility.yul\":7923:7988   */\n      tag_114\n      jump\t// in\n    tag_236:\n        /* \"#utility.yul\":8013:8042   */\n      tag_237\n        /* \"#utility.yul\":8035:8041   */\n      dup2\n        /* \"#utility.yul\":8013:8042   */\n      tag_115\n      jump\t// in\n    tag_237:\n        /* \"#utility.yul\":8008:8011   */\n      dup5\n        /* \"#utility.yul\":8004:8043   */\n      add\n        /* \"#utility.yul\":7997:8043   */\n      swap2\n      pop\n        /* \"#utility.yul\":7764:8049   */\n      pop\n        /* \"#utility.yul\":7672:8049   */\n      swap3\n      swap2\n      pop\n      pop\n      jump\t// out\n        /* \"#utility.yul\":8055:9012   */\n    tag_60:\n        /* \"#utility.yul\":8328:8332   */\n      0x00\n        /* \"#utility.yul\":8366:8369   */\n      0xc0\n        /* \"#utility.yul\":8355:8364   */\n      dup3\n        /* \"#utility.yul\":8351:8370   */\n      add\n        /* \"#utility.yul\":8343:8370   */\n      swap1\n      pop\n        /* \"#utility.yul\":8380:8451   */\n      tag_239\n        /* \"#utility.yul\":8448:8449   */\n      0x00\n        /* \"#utility.yul\":8437:8446   */\n      dup4\n        /* \"#utility.yul\":8433:8450   */\n      add\n        /* \"#utility.yul\":8424:8430   */\n      dup10\n        /* \"#utility.yul\":8380:8451   */\n      tag_120\n      jump\t// in\n    tag_239:\n        /* \"#utility.yul\":8461:8533   */\n      tag_240\n        /* \"#utility.yul\":8529:8531   */\n      0x20\n        /* \"#utility.yul\":8518:8527   */\n      dup4\n        /* \"#utility.yul\":8514:8532   */\n      add\n        /* \"#utility.yul\":8505:8511   */\n      dup9\n        /* \"#utility.yul\":8461:8533   */\n      tag_127\n      jump\t// in\n    tag_240:\n        /* \"#utility.yul\":8580:8589   */\n      dup2\n        /* \"#utility.yul\":8574:8578   */\n      dup2\n        /* \"#utility.yul\":8570:8590   */\n      sub\n        /* \"#utility.yul\":8565:8567   */\n      0x40\n        /* \"#utility.yul\":8554:8563   */\n      dup4\n        /* \"#utility.yul\":8550:8568   */\n      add\n        /* \"#utility.yul\":8543:8591   */\n      mstore\n        /* \"#utility.yul\":8608:8686   */\n      tag_241\n        /* \"#utility.yul\":8681:8685   */\n      dup2\n        /* \"#utility.yul\":8672:8678   */\n      dup8\n        /* \"#utility.yul\":8608:8686   */\n      tag_129\n      jump\t// in\n    tag_241:\n        /* \"#utility.yul\":8600:8686   */\n      swap1\n      pop\n        /* \"#utility.yul\":8733:8742   */\n      dup2\n        /* \"#utility.yul\":8727:8731   */\n      dup2\n        /* \"#utility.yul\":8723:8743   */\n      sub\n        /* \"#utility.yul\":8718:8720   */\n      0x60\n        /* \"#utility.yul\":8707:8716   */\n      dup4\n        /* \"#utility.yul\":8703:8721   */\n      add\n        /* \"#utility.yul\":8696:8744   */\n      mstore\n        /* \"#utility.yul\":8761:8839   */\n      tag_242\n        /* \"#utility.yul\":8834:8838   */\n      dup2\n        /* \"#utility.yul\":8825:8831   */\n      dup7\n        /* \"#utility.yul\":8761:8839   */\n      tag_129\n      jump\t// in\n    tag_242:\n        /* \"#utility.yul\":8753:8839   */\n      swap1\n      pop\n        /* \"#utility.yul\":8849:8922   */\n      tag_243\n        /* \"#utility.yul\":8917:8920   */\n      0x80\n        /* \"#utility.yul\":8906:8915   */\n      dup4\n        /* \"#utility.yul\":8902:8921   */\n      add\n        /* \"#utility.yul\":8893:8899   */\n      dup6\n        /* \"#utility.yul\":8849:8922   */\n      tag_120\n      jump\t// in\n    tag_243:\n        /* \"#utility.yul\":8932:9005   */\n      tag_244\n        /* \"#utility.yul\":9000:9003   */\n      0xa0\n        /* \"#utility.yul\":8989:8998   */\n      dup4\n        /* \"#utility.yul\":8985:9004   */\n      add\n        /* \"#utility.yul\":8976:8982   */\n      dup5\n        /* \"#utility.yul\":8932:9005   */\n      tag_120\n      jump\t// in\n    tag_244:\n        /* \"#utility.yul\":8055:9012   */\n      swap8\n      swap7\n      pop\n      pop\n      pop\n      pop\n      pop\n      pop\n      pop\n      jump\t// out\n        /* \"#utility.yul\":9018:9198   */\n    tag_130:\n        /* \"#utility.yul\":9066:9143   */\n      0x4e487b7100000000000000000000000000000000000000000000000000000000\n        /* \"#utility.yul\":9063:9064   */\n      0x00\n        /* \"#utility.yul\":9056:9144   */\n      mstore\n        /* \"#utility.yul\":9163:9167   */\n      0x22\n        /* \"#utility.yul\":9160:9161   */\n      0x04\n        /* \"#utility.yul\":9153:9168   */\n      mstore\n        /* \"#utility.yul\":9187:9191   */\n      0x24\n        /* \"#utility.yul\":9184:9185   */\n      0x00\n        /* \"#utility.yul\":9177:9192   */\n      revert\n        /* \"#utility.yul\":9204:9524   */\n    tag_65:\n        /* \"#utility.yul\":9248:9254   */\n      0x00\n        /* \"#utility.yul\":9285:9286   */\n      0x02\n        /* \"#utility.yul\":9279:9283   */\n      dup3\n        /* \"#utility.yul\":9275:9287   */\n      div\n        /* \"#utility.yul\":9265:9287   */\n      swap1\n      pop\n        /* \"#utility.yul\":9332:9333   */\n      0x01\n        /* \"#utility.yul\":9326:9330   */\n      dup3\n        /* \"#utility.yul\":9322:9334   */\n      and\n        /* \"#utility.yul\":9353:9371   */\n      dup1\n        /* \"#utility.yul\":9343:9424   */\n      tag_247\n      jumpi\n        /* \"#utility.yul\":9409:9413   */\n      0x7f\n        /* \"#utility.yul\":9401:9407   */\n      dup3\n        /* \"#utility.yul\":9397:9414   */\n      and\n        /* \"#utility.yul\":9387:9414   */\n      swap2\n      pop\n        /* \"#utility.yul\":9343:9424   */\n    tag_247:\n        /* \"#utility.yul\":9471:9473   */\n      0x20\n        /* \"#utility.yul\":9463:9469   */\n      dup3\n        /* \"#utility.yul\":9460:9474   */\n      lt\n        /* \"#utility.yul\":9440:9458   */\n      dup2\n        /* \"#utility.yul\":9437:9475   */\n      sub\n        /* \"#utility.yul\":9434:9518   */\n      tag_248\n      jumpi\n        /* \"#utility.yul\":9490:9508   */\n      tag_249\n      tag_130\n      jump\t// in\n    tag_249:\n        /* \"#utility.yul\":9434:9518   */\n    tag_248:\n        /* \"#utility.yul\":9255:9524   */\n      pop\n        /* \"#utility.yul\":9204:9524   */\n      swap2\n      swap1\n      pop\n      jump\t// out\n        /* \"#utility.yul\":9530:9763   */\n    tag_131:\n        /* \"#utility.yul\":9670:9704   */\n      0x596f75206d7573742073656e6420736f6d6520457468657220746f2072656769\n        /* \"#utility.yul\":9666:9667   */\n      0x00\n        /* \"#utility.yul\":9658:9664   */\n      dup3\n        /* \"#utility.yul\":9654:9668   */\n      add\n        /* \"#utility.yul\":9647:9705   */\n      mstore\n        /* \"#utility.yul\":9739:9755   */\n      0x73746572206120426c6f636b4944000000000000000000000000000000000000\n        /* \"#utility.yul\":9734:9736   */\n      0x20\n        /* \"#utility.yul\":9726:9732   */\n      dup3\n        /* \"#utility.yul\":9722:9737   */\n      add\n        /* \"#utility.yul\":9715:9756   */\n      mstore\n        /* \"#utility.yul\":9530:9763   */\n      pop\n      jump\t// out\n        /* \"#utility.yul\":9769:10135   */\n    tag_132:\n        /* \"#utility.yul\":9911:9914   */\n      0x00\n        /* \"#utility.yul\":9932:9999   */\n      tag_252\n        /* \"#utility.yul\":9996:9998   */\n      0x2e\n        /* \"#utility.yul\":9991:9994   */\n      dup4\n        /* \"#utility.yul\":9932:9999   */\n      tag_128\n      jump\t// in\n    tag_252:\n        /* \"#utility.yul\":9925:9999   */\n      swap2\n      pop\n        /* \"#utility.yul\":10008:10101   */\n      tag_253\n        /* \"#utility.yul\":10097:10100   */\n      dup3\n        /* \"#utility.yul\":10008:10101   */\n      tag_131\n      jump\t// in\n    tag_253:\n        /* \"#utility.yul\":10126:10128   */\n      0x40\n        /* \"#utility.yul\":10121:10124   */\n      dup3\n        /* \"#utility.yul\":10117:10129   */\n      add\n        /* \"#utility.yul\":10110:10129   */\n      swap1\n      pop\n        /* \"#utility.yul\":9769:10135   */\n      swap2\n      swap1\n      pop\n      jump\t// out\n        /* \"#utility.yul\":10141:10560   */\n    tag_79:\n        /* \"#utility.yul\":10307:10311   */\n      0x00\n        /* \"#utility.yul\":10345:10347   */\n      0x20\n        /* \"#utility.yul\":10334:10343   */\n      dup3\n        /* \"#utility.yul\":10330:10348   */\n      add\n        /* \"#utility.yul\":10322:10348   */\n      swap1\n      pop\n        /* \"#utility.yul\":10394:10403   */\n      dup2\n        /* \"#utility.yul\":10388:10392   */\n      dup2\n        /* \"#utility.yul\":10384:10404   */\n      sub\n        /* \"#utility.yul\":10380:10381   */\n      0x00\n        /* \"#utility.yul\":10369:10378   */\n      dup4\n        /* \"#utility.yul\":10365:10382   */\n      add\n        /* \"#utility.yul\":10358:10405   */\n      mstore\n        /* \"#utility.yul\":10422:10553   */\n      tag_255\n        /* \"#utility.yul\":10548:10552   */\n      dup2\n        /* \"#utility.yul\":10422:10553   */\n      tag_132\n      jump\t// in\n    tag_255:\n        /* \"#utility.yul\":10414:10553   */\n      swap1\n      pop\n        /* \"#utility.yul\":10141:10560   */\n      swap2\n      swap1\n      pop\n      jump\t// out\n        /* \"#utility.yul\":10566:10745   */\n    tag_133:\n        /* \"#utility.yul\":10706:10737   */\n      0x4163636f756e7420616c726561647920686173206120426c6f636b4944000000\n        /* \"#utility.yul\":10702:10703   */\n      0x00\n        /* \"#utility.yul\":10694:10700   */\n      dup3\n        /* \"#utility.yul\":10690:10704   */\n      add\n        /* \"#utility.yul\":10683:10738   */\n      mstore\n        /* \"#utility.yul\":10566:10745   */\n      pop\n      jump\t// out\n        /* \"#utility.yul\":10751:11117   */\n    tag_134:\n        /* \"#utility.yul\":10893:10896   */\n      0x00\n        /* \"#utility.yul\":10914:10981   */\n      tag_258\n        /* \"#utility.yul\":10978:10980   */\n      0x1d\n        /* \"#utility.yul\":10973:10976   */\n      dup4\n        /* \"#utility.yul\":10914:10981   */\n      tag_128\n      jump\t// in\n    tag_258:\n        /* \"#utility.yul\":10907:10981   */\n      swap2\n      pop\n        /* \"#utility.yul\":10990:11083   */\n      tag_259\n        /* \"#utility.yul\":11079:11082   */\n      dup3\n        /* \"#utility.yul\":10990:11083   */\n      tag_133\n      jump\t// in\n    tag_259:\n        /* \"#utility.yul\":11108:11110   */\n      0x20\n        /* \"#utility.yul\":11103:11106   */\n      dup3\n        /* \"#utility.yul\":11099:11111   */\n      add\n        /* \"#utility.yul\":11092:11111   */\n      swap1\n      pop\n        /* \"#utility.yul\":10751:11117   */\n      swap2\n      swap1\n      pop\n      jump\t// out\n        /* \"#utility.yul\":11123:11542   */\n    tag_82:\n        /* \"#utility.yul\":11289:11293   */\n      0x00\n        /* \"#utility.yul\":11327:11329   */\n      0x20\n        /* \"#utility.yul\":11316:11325   */\n      dup3\n        /* \"#utility.yul\":11312:11330   */\n      add\n        /* \"#utility.yul\":11304:11330   */\n      swap1\n      pop\n        /* \"#utility.yul\":11376:11385   */\n      dup2\n        /* \"#utility.yul\":11370:11374   */\n      dup2\n        /* \"#utility.yul\":11366:11386   */\n      sub\n        /* \"#utility.yul\":11362:11363   */\n      0x00\n        /* \"#utility.yul\":11351:11360   */\n      dup4\n        /* \"#utility.yul\":11347:11364   */\n      add\n        /* \"#utility.yul\":11340:11387   */\n      mstore\n        /* \"#utility.yul\":11404:11535   */\n      tag_261\n        /* \"#utility.yul\":11530:11534   */\n      dup2\n        /* \"#utility.yul\":11404:11535   */\n      tag_134\n      jump\t// in\n    tag_261:\n        /* \"#utility.yul\":11396:11535   */\n      swap1\n      pop\n        /* \"#utility.yul\":11123:11542   */\n      swap2\n      swap1\n      pop\n      jump\t// out\n        /* \"#utility.yul\":11548:11728   */\n    tag_135:\n        /* \"#utility.yul\":11596:11673   */\n      0x4e487b7100000000000000000000000000000000000000000000000000000000\n        /* \"#utility.yul\":11593:11594   */\n      0x00\n        /* \"#utility.yul\":11586:11674   */\n      mstore\n        /* \"#utility.yul\":11693:11697   */\n      0x11\n        /* \"#utility.yul\":11690:11691   */\n      0x04\n        /* \"#utility.yul\":11683:11698   */\n      mstore\n        /* \"#utility.yul\":11717:11721   */\n      0x24\n        /* \"#utility.yul\":11714:11715   */\n      0x00\n        /* \"#utility.yul\":11707:11722   */\n      revert\n        /* \"#utility.yul\":11734:11967   */\n    tag_84:\n        /* \"#utility.yul\":11773:11776   */\n      0x00\n        /* \"#utility.yul\":11796:11820   */\n      tag_264\n        /* \"#utility.yul\":11814:11819   */\n      dup3\n        /* \"#utility.yul\":11796:11820   */\n      tag_105\n      jump\t// in\n    tag_264:\n        /* \"#utility.yul\":11787:11820   */\n      swap2\n      pop\n        /* \"#utility.yul\":11842:11908   */\n      0xffffffffffffffffffffffffffffffffffffffffffffffffffffffffffffffff\n        /* \"#utility.yul\":11835:11840   */\n      dup3\n        /* \"#utility.yul\":11832:11909   */\n      sub\n        /* \"#utility.yul\":11829:11932   */\n      tag_265\n      jumpi\n        /* \"#utility.yul\":11912:11930   */\n      tag_266\n      tag_135\n      jump\t// in\n    tag_266:\n        /* \"#utility.yul\":11829:11932   */\n    tag_265:\n        /* \"#utility.yul\":11959:11960   */\n      0x01\n        /* \"#utility.yul\":11952:11957   */\n      dup3\n        /* \"#utility.yul\":11948:11961   */\n      add\n        /* \"#utility.yul\":11941:11961   */\n      swap1\n      pop\n        /* \"#utility.yul\":11734:11967   */\n      swap2\n      swap1\n      pop\n      jump\t// out\n        /* \"#utility.yul\":11973:12153   */\n    tag_136:\n        /* \"#utility.yul\":12021:12098   */\n      0x4e487b7100000000000000000000000000000000000000000000000000000000\n        /* \"#utility.yul\":12018:12019   */\n      0x00\n        /* \"#utility.yul\":12011:12099   */\n      mstore\n        /* \"#utility.yul\":12118:12122   */\n      0x41\n        /* \"#utility.yul\":12115:12116   */\n      0x04\n        /* \"#utility.yul\":12108:12123   */\n      mstore\n        /* \"#utility.yul\":12142:12146   */\n      0x24\n        /* \"#utility.yul\":12139:12140   */\n      0x00\n        /* \"#utility.yul\":12132:12147   */\n      revert\n        /* \"#utility.yul\":12159:12300   */\n    tag_137:\n        /* \"#utility.yul\":12208:12212   */\n      0x00\n        /* \"#utility.yul\":12231:12234   */\n      dup2\n        /* \"#utility.yul\":12223:12234   */\n      swap1\n      pop\n        /* \"#utility.yul\":12254:12257   */\n      dup2\n        /* \"#utility.yul\":12251:12252   */\n      0x00\n        /* \"#utility.yul\":12244:12258   */\n      mstore\n        /* \"#utility.yul\":12288:12292   */\n      0x20\n        /* \"#utility.yul\":12285:12286   */\n      0x00\n        /* \"#utility.yul\":12275:12293   */\n      keccak256\n        /* \"#utility.yul\":12267:12293   */\n      swap1\n      pop\n        /* \"#utility.yul\":12159:12300   */\n      swap2\n      swap1\n      pop\n      jump\t// out\n        /* \"#utility.yul\":12306:12399   */\n    tag_138:\n        /* \"#utility.yul\":12343:12349   */\n      0x00\n        /* \"#utility.yul\":12390:12392   */\n      0x20\n        /* \"#utility.yul\":12385:12387   */\n      0x1f\n        /* \"#utility.yul\":12378:12383   */\n      dup4\n        /* \"#utility.yul\":12374:12388   */\n      add\n        /* \"#utility.yul\":12370:12393   */\n      div\n        /* \"#utility.yul\":12360:12393   */\n      swap1\n      pop\n        /* \"#utility.yul\":12306:12399   */\n      swap2\n      swap1\n      pop\n      jump\t// out\n        /* \"#utility.yul\":12405:12512   */\n    tag_139:\n        /* \"#utility.yul\":12449:12457   */\n      0x00\n        /* \"#utility.yul\":12499:12504   */\n      dup3\n        /* \"#utility.yul\":12493:12497   */\n      dup3\n        /* \"#utility.yul\":12489:12505   */\n      shl\n        /* \"#utility.yul\":12468:12505   */\n      swap1\n      pop\n        /* \"#utility.yul\":12405:12512   */\n      swap3\n      swap2\n      pop\n      pop\n      jump\t// out\n        /* \"#utility.yul\":12518:12911   */\n    tag_140:\n        /* \"#utility.yul\":12587:12593   */\n      0x00\n        /* \"#utility.yul\":12637:12638   */\n      0x08\n        /* \"#utility.yul\":12625:12635   */\n      dup4\n        /* \"#utility.yul\":12621:12639   */\n      mul\n        /* \"#utility.yul\":12660:12757   */\n      tag_272\n        /* \"#utility.yul\":12690:12756   */\n      0xffffffffffffffffffffffffffffffffffffffffffffffffffffffffffffffff\n        /* \"#utility.yul\":12679:12688   */\n      dup3\n        /* \"#utility.yul\":12660:12757   */\n      tag_139\n      jump\t// in\n    tag_272:\n        /* \"#utility.yul\":12778:12817   */\n      tag_273\n        /* \"#utility.yul\":12808:12816   */\n      dup7\n        /* \"#utility.yul\":12797:12806   */\n      dup4\n        /* \"#utility.yul\":12778:12817   */\n      tag_139\n      jump\t// in\n    tag_273:\n        /* \"#utility.yul\":12766:12817   */\n      swap6\n      pop\n        /* \"#utility.yul\":12850:12854   */\n      dup1\n        /* \"#utility.yul\":12846:12855   */\n      not\n        /* \"#utility.yul\":12839:12844   */\n      dup5\n        /* \"#utility.yul\":12835:12856   */\n      and\n        /* \"#utility.yul\":12826:12856   */\n      swap4\n      pop\n        /* \"#utility.yul\":12899:12903   */\n      dup1\n        /* \"#utility.yul\":12889:12897   */\n      dup7\n        /* \"#utility.yul\":12885:12904   */\n      and\n        /* \"#utility.yul\":12878:12883   */\n      dup5\n        /* \"#utility.yul\":12875:12905   */\n      or\n        /* \"#utility.yul\":12865:12905   */\n      swap3\n      pop\n        /* \"#utility.yul\":12594:12911   */\n      pop\n      pop\n        /* \"#utility.yul\":12518:12911   */\n      swap4\n      swap3\n      pop\n      pop\n      pop\n      jump\t// out\n        /* \"#utility.yul\":12917:12977   */\n    tag_141:\n        /* \"#utility.yul\":12945:12948   */\n      0x00\n        /* \"#utility.yul\":12966:12971   */\n      dup2\n        /* \"#utility.yul\":12959:12971   */\n      swap1\n      pop\n        /* \"#utility.yul\":12917:12977   */\n      swap2\n      swap1\n      pop\n      jump\t// out\n        /* \"#utility.yul\":12983:13125   */\n    tag_142:\n        /* \"#utility.yul\":13033:13042   */\n      0x00\n        /* \"#utility.yul\":13066:13119   */\n      tag_276\n        /* \"#utility.yul\":13084:13118   */\n      tag_277\n        /* \"#utility.yul\":13093:13117   */\n      tag_278\n        /* \"#utility.yul\":13111:13116   */\n      dup5\n        /* \"#utility.yul\":13093:13117   */\n      tag_105\n      jump\t// in\n    tag_278:\n        /* \"#utility.yul\":13084:13118   */\n      tag_141\n      jump\t// in\n    tag_277:\n        /* \"#utility.yul\":13066:13119   */\n      tag_105\n      jump\t// in\n    tag_276:\n        /* \"#utility.yul\":13053:13119   */\n      swap1\n      pop\n        /* \"#utility.yul\":12983:13125   */\n      swap2\n      swap1\n      pop\n      jump\t// out\n        /* \"#utility.yul\":13131:13206   */\n    tag_143:\n        /* \"#utility.yul\":13174:13177   */\n      0x00\n        /* \"#utility.yul\":13195:13200   */\n      dup2\n        /* \"#utility.yul\":13188:13200   */\n      swap1\n      pop\n        /* \"#utility.yul\":13131:13206   */\n      swap2\n      swap1\n      pop\n      jump\t// out\n        /* \"#utility.yul\":13212:13481   */\n    tag_144:\n        /* \"#utility.yul\":13322:13361   */\n      tag_281\n        /* \"#utility.yul\":13353:13360   */\n      dup4\n        /* \"#utility.yul\":13322:13361   */\n      tag_142\n      jump\t// in\n    tag_281:\n        /* \"#utility.yul\":13383:13474   */\n      tag_282\n        /* \"#utility.yul\":13432:13473   */\n      tag_283\n        /* \"#utility.yul\":13456:13472   */\n      dup3\n        /* \"#utility.yul\":13432:13473   */\n      tag_143\n      jump\t// in\n    tag_283:\n        /* \"#utility.yul\":13424:13430   */\n      dup5\n        /* \"#utility.yul\":13417:13421   */\n      dup5\n        /* \"#utility.yul\":13411:13422   */\n      sload\n        /* \"#utility.yul\":13383:13474   */\n      tag_140\n      jump\t// in\n    tag_282:\n        /* \"#utility.yul\":13377:13381   */\n      dup3\n        /* \"#utility.yul\":13370:13475   */\n      sstore\n        /* \"#utility.yul\":13288:13481   */\n      pop\n        /* \"#utility.yul\":13212:13481   */\n      pop\n      pop\n      pop\n      jump\t// out\n        /* \"#utility.yul\":13487:13560   */\n    tag_145:\n        /* \"#utility.yul\":13532:13535   */\n      0x00\n        /* \"#utility.yul\":13553:13554   */\n      0x00\n        /* \"#utility.yul\":13546:13554   */\n      swap1\n      pop\n        /* \"#utility.yul\":13487:13560   */\n      swap1\n      jump\t// out\n        /* \"#utility.yul\":13566:13755   */\n    tag_146:\n        /* \"#utility.yul\":13643:13675   */\n      tag_286\n      tag_145\n      jump\t// in\n    tag_286:\n        /* \"#utility.yul\":13684:13749   */\n      tag_287\n        /* \"#utility.yul\":13742:13748   */\n      dup2\n        /* \"#utility.yul\":13734:13740   */\n      dup5\n        /* \"#utility.yul\":13728:13732   */\n      dup5\n        /* \"#utility.yul\":13684:13749   */\n      tag_144\n      jump\t// in\n    tag_287:\n        /* \"#utility.yul\":13619:13755   */\n      pop\n        /* \"#utility.yul\":13566:13755   */\n      pop\n      pop\n      jump\t// out\n        /* \"#utility.yul\":13761:13947   */\n    tag_147:\n        /* \"#utility.yul\":13821:13941   */\n    tag_289:\n        /* \"#utility.yul\":13838:13841   */\n      dup2\n        /* \"#utility.yul\":13831:13836   */\n      dup2\n        /* \"#utility.yul\":13828:13842   */\n      lt\n        /* \"#utility.yul\":13821:13941   */\n      iszero\n      tag_291\n      jumpi\n        /* \"#utility.yul\":13892:13931   */\n      tag_292\n        /* \"#utility.yul\":13929:13930   */\n      0x00\n        /* \"#utility.yul\":13922:13927   */\n      dup3\n        /* \"#utility.yul\":13892:13931   */\n      tag_146\n      jump\t// in\n    tag_292:\n        /* \"#utility.yul\":13865:13866   */\n      0x01\n        /* \"#utility.yul\":13858:13863   */\n      dup2\n        /* \"#utility.yul\":13854:13867   */\n      add\n        /* \"#utility.yul\":13845:13867   */\n      swap1\n      pop\n        /* \"#utility.yul\":13821:13941   */\n      jump(tag_289)\n    tag_291:\n        /* \"#utility.yul\":13761:13947   */\n      pop\n      pop\n      jump\t// out\n        /* \"#utility.yul\":13953:14496   */\n    tag_148:\n        /* \"#utility.yul\":14054:14056   */\n      0x1f\n        /* \"#utility.yul\":14049:14052   */\n      dup3\n        /* \"#utility.yul\":14046:14057   */\n      gt\n        /* \"#utility.yul\":14043:14489   */\n      iszero\n      tag_294\n      jumpi\n        /* \"#utility.yul\":14088:14126   */\n      tag_295\n        /* \"#utility.yul\":14120:14125   */\n      dup2\n        /* \"#utility.yul\":14088:14126   */\n      tag_137\n      jump\t// in\n    tag_295:\n        /* \"#utility.yul\":14172:14201   */\n      tag_296\n        /* \"#utility.yul\":14190:14200   */\n      dup5\n        /* \"#utility.yul\":14172:14201   */\n      tag_138\n      jump\t// in\n    tag_296:\n        /* \"#utility.yul\":14162:14170   */\n      dup2\n        /* \"#utility.yul\":14158:14202   */\n      add\n        /* \"#utility.yul\":14355:14357   */\n      0x20\n        /* \"#utility.yul\":14343:14353   */\n      dup6\n        /* \"#utility.yul\":14340:14358   */\n      lt\n        /* \"#utility.yul\":14337:14386   */\n      iszero\n      tag_297\n      jumpi\n        /* \"#utility.yul\":14376:14384   */\n      dup2\n        /* \"#utility.yul\":14361:14384   */\n      swap1\n      pop\n        /* \"#utility.yul\":14337:14386   */\n    tag_297:\n        /* \"#utility.yul\":14399:14479   */\n      tag_298\n        /* \"#utility.yul\":14455:14477   */\n      tag_299\n        /* \"#utility.yul\":14473:14476   */\n      dup6\n        /* \"#utility.yul\":14455:14477   */\n      tag_138\n      jump\t// in\n    tag_299:\n        /* \"#utility.yul\":14445:14453   */\n      dup4\n        /* \"#utility.yul\":14441:14478   */\n      add\n        /* \"#utility.yul\":14428:14439   */\n      dup3\n        /* \"#utility.yul\":14399:14479   */\n      tag_147\n      jump\t// in\n    tag_298:\n        /* \"#utility.yul\":14058:14489   */\n      pop\n      pop\n        /* \"#utility.yul\":14043:14489   */\n    tag_294:\n        /* \"#utility.yul\":13953:14496   */\n      pop\n      pop\n      pop\n      jump\t// out\n        /* \"#utility.yul\":14502:14619   */\n    tag_149:\n        /* \"#utility.yul\":14556:14564   */\n      0x00\n        /* \"#utility.yul\":14606:14611   */\n      dup3\n        /* \"#utility.yul\":14600:14604   */\n      dup3\n        /* \"#utility.yul\":14596:14612   */\n      shr\n        /* \"#utility.yul\":14575:14612   */\n      swap1\n      pop\n        /* \"#utility.yul\":14502:14619   */\n      swap3\n      swap2\n      pop\n      pop\n      jump\t// out\n        /* \"#utility.yul\":14625:14794   */\n    tag_150:\n        /* \"#utility.yul\":14669:14675   */\n      0x00\n        /* \"#utility.yul\":14702:14753   */\n      tag_302\n        /* \"#utility.yul\":14750:14751   */\n      0x00\n        /* \"#utility.yul\":14746:14752   */\n      not\n        /* \"#utility.yul\":14738:14743   */\n      dup5\n        /* \"#utility.yul\":14735:14736   */\n      0x08\n        /* \"#utility.yul\":14731:14744   */\n      mul\n        /* \"#utility.yul\":14702:14753   */\n      tag_149\n      jump\t// in\n    tag_302:\n        /* \"#utility.yul\":14698:14754   */\n      not\n        /* \"#utility.yul\":14783:14787   */\n      dup1\n        /* \"#utility.yul\":14777:14781   */\n      dup4\n        /* \"#utility.yul\":14773:14788   */\n      and\n        /* \"#utility.yul\":14763:14788   */\n      swap2\n      pop\n        /* \"#utility.yul\":14676:14794   */\n      pop\n        /* \"#utility.yul\":14625:14794   */\n      swap3\n      swap2\n      pop\n      pop\n      jump\t// out\n        /* \"#utility.yul\":14799:15094   */\n    tag_151:\n        /* \"#utility.yul\":14875:14879   */\n      0x00\n        /* \"#utility.yul\":15021:15050   */\n      tag_304\n        /* \"#utility.yul\":15046:15049   */\n      dup4\n        /* \"#utility.yul\":15040:15044   */\n      dup4\n        /* \"#utility.yul\":15021:15050   */\n      tag_150\n      jump\t// in\n    tag_304:\n        /* \"#utility.yul\":15013:15050   */\n      swap2\n      pop\n        /* \"#utility.yul\":15083:15086   */\n      dup3\n        /* \"#utility.yul\":15080:15081   */\n      0x02\n        /* \"#utility.yul\":15076:15087   */\n      mul\n        /* \"#utility.yul\":15070:15074   */\n      dup3\n        /* \"#utility.yul\":15067:15088   */\n      or\n        /* \"#utility.yul\":15059:15088   */\n      swap1\n      pop\n        /* \"#utility.yul\":14799:15094   */\n      swap3\n      swap2\n      pop\n      pop\n      jump\t// out\n        /* \"#utility.yul\":15099:16494   */\n    tag_86:\n        /* \"#utility.yul\":15216:15253   */\n      tag_306\n        /* \"#utility.yul\":15249:15252   */\n      dup3\n        /* \"#utility.yul\":15216:15253   */\n      tag_112\n      jump\t// in\n    tag_306:\n        /* \"#utility.yul\":15318:15336   */\n      0xffffffffffffffff\n        /* \"#utility.yul\":15310:15316   */\n      dup2\n        /* \"#utility.yul\":15307:15337   */\n      gt\n        /* \"#utility.yul\":15304:15360   */\n      iszero\n      tag_307\n      jumpi\n        /* \"#utility.yul\":15340:15358   */\n      tag_308\n      tag_136\n      jump\t// in\n    tag_308:\n        /* \"#utility.yul\":15304:15360   */\n    tag_307:\n        /* \"#utility.yul\":15384:15422   */\n      tag_309\n        /* \"#utility.yul\":15416:15420   */\n      dup3\n        /* \"#utility.yul\":15410:15421   */\n      sload\n        /* \"#utility.yul\":15384:15422   */\n      tag_65\n      jump\t// in\n    tag_309:\n        /* \"#utility.yul\":15469:15536   */\n      tag_310\n        /* \"#utility.yul\":15529:15535   */\n      dup3\n        /* \"#utility.yul\":15521:15527   */\n      dup3\n        /* \"#utility.yul\":15515:15519   */\n      dup6\n        /* \"#utility.yul\":15469:15536   */\n      tag_148\n      jump\t// in\n    tag_310:\n        /* \"#utility.yul\":15563:15564   */\n      0x00\n        /* \"#utility.yul\":15587:15591   */\n      0x20\n        /* \"#utility.yul\":15574:15591   */\n      swap1\n      pop\n        /* \"#utility.yul\":15619:15621   */\n      0x1f\n        /* \"#utility.yul\":15611:15617   */\n      dup4\n        /* \"#utility.yul\":15608:15622   */\n      gt\n        /* \"#utility.yul\":15636:15637   */\n      0x01\n        /* \"#utility.yul\":15631:16249   */\n      dup2\n      eq\n      tag_312\n      jumpi\n        /* \"#utility.yul\":16293:16294   */\n      0x00\n        /* \"#utility.yul\":16310:16316   */\n      dup5\n        /* \"#utility.yul\":16307:16384   */\n      iszero\n      tag_313\n      jumpi\n        /* \"#utility.yul\":16359:16368   */\n      dup3\n        /* \"#utility.yul\":16354:16357   */\n      dup8\n        /* \"#utility.yul\":16350:16369   */\n      add\n        /* \"#utility.yul\":16344:16370   */\n      mload\n        /* \"#utility.yul\":16335:16370   */\n      swap1\n      pop\n        /* \"#utility.yul\":16307:16384   */\n    tag_313:\n        /* \"#utility.yul\":16410:16477   */\n      tag_314\n        /* \"#utility.yul\":16470:16476   */\n      dup6\n        /* \"#utility.yul\":16463:16468   */\n      dup3\n        /* \"#utility.yul\":16410:16477   */\n      tag_151\n      jump\t// in\n    tag_314:\n        /* \"#utility.yul\":16404:16408   */\n      dup7\n        /* \"#utility.yul\":16397:16478   */\n      sstore\n        /* \"#utility.yul\":16266:16488   */\n      pop\n        /* \"#utility.yul\":15601:16488   */\n      jump(tag_311)\n        /* \"#utility.yul\":15631:16249   */\n    tag_312:\n        /* \"#utility.yul\":15683:15687   */\n      0x1f\n        /* \"#utility.yul\":15679:15688   */\n      not\n        /* \"#utility.yul\":15671:15677   */\n      dup5\n        /* \"#utility.yul\":15667:15689   */\n      and\n        /* \"#utility.yul\":15717:15754   */\n      tag_315\n        /* \"#utility.yul\":15749:15753   */\n      dup7\n        /* \"#utility.yul\":15717:15754   */\n      tag_137\n      jump\t// in\n    tag_315:\n        /* \"#utility.yul\":15776:15777   */\n      0x00\n        /* \"#utility.yul\":15790:15998   */\n    tag_316:\n        /* \"#utility.yul\":15804:15811   */\n      dup3\n        /* \"#utility.yul\":15801:15802   */\n      dup2\n        /* \"#utility.yul\":15798:15812   */\n      lt\n        /* \"#utility.yul\":15790:15998   */\n      iszero\n      tag_318\n      jumpi\n        /* \"#utility.yul\":15883:15892   */\n      dup5\n        /* \"#utility.yul\":15878:15881   */\n      dup10\n        /* \"#utility.yul\":15874:15893   */\n      add\n        /* \"#utility.yul\":15868:15894   */\n      mload\n        /* \"#utility.yul\":15860:15866   */\n      dup3\n        /* \"#utility.yul\":15853:15895   */\n      sstore\n        /* \"#utility.yul\":15934:15935   */\n      0x01\n        /* \"#utility.yul\":15926:15932   */\n      dup3\n        /* \"#utility.yul\":15922:15936   */\n      add\n        /* \"#utility.yul\":15912:15936   */\n      swap2\n      pop\n        /* \"#utility.yul\":15981:15983   */\n      0x20\n        /* \"#utility.yul\":15970:15979   */\n      dup6\n        /* \"#utility.yul\":15966:15984   */\n      add\n        /* \"#utility.yul\":15953:15984   */\n      swap5\n      pop\n        /* \"#utility.yul\":15827:15831   */\n      0x20\n        /* \"#utility.yul\":15824:15825   */\n      dup2\n        /* \"#utility.yul\":15820:15832   */\n      add\n        /* \"#utility.yul\":15815:15832   */\n      swap1\n      pop\n        /* \"#utility.yul\":15790:15998   */\n      jump(tag_316)\n    tag_318:\n        /* \"#utility.yul\":16026:16032   */\n      dup7\n        /* \"#utility.yul\":16017:16024   */\n      dup4\n        /* \"#utility.yul\":16014:16033   */\n      lt\n        /* \"#utility.yul\":16011:16190   */\n      iszero\n      tag_319\n      jumpi\n        /* \"#utility.yul\":16084:16093   */\n      dup5\n        /* \"#utility.yul\":16079:16082   */\n      dup10\n        /* \"#utility.yul\":16075:16094   */\n      add\n        /* \"#utility.yul\":16069:16095   */\n      mload\n        /* \"#utility.yul\":16127:16175   */\n      tag_320\n        /* \"#utility.yul\":16169:16173   */\n      0x1f\n        /* \"#utility.yul\":16161:16167   */\n      dup10\n        /* \"#utility.yul\":16157:16174   */\n      and\n        /* \"#utility.yul\":16146:16155   */\n      dup3\n        /* \"#utility.yul\":16127:16175   */\n      tag_150\n      jump\t// in\n    tag_320:\n        /* \"#utility.yul\":16119:16125   */\n      dup4\n        /* \"#utility.yul\":16112:16176   */\n      sstore\n        /* \"#utility.yul\":16034:16190   */\n      pop\n        /* \"#utility.yul\":16011:16190   */\n    tag_319:\n        /* \"#utility.yul\":16236:16237   */\n      0x01\n        /* \"#utility.yul\":16232:16233   */\n      0x02\n        /* \"#utility.yul\":16224:16230   */\n      dup9\n        /* \"#utility.yul\":16220:16234   */\n      mul\n        /* \"#utility.yul\":16216:16238   */\n      add\n        /* \"#utility.yul\":16210:16214   */\n      dup9\n        /* \"#utility.yul\":16203:16239   */\n      sstore\n        /* \"#utility.yul\":15638:16249   */\n      pop\n      pop\n      pop\n        /* \"#utility.yul\":15601:16488   */\n    tag_311:\n      pop\n        /* \"#utility.yul\":15191:16494   */\n      pop\n      pop\n      pop\n        /* \"#utility.yul\":15099:16494   */\n      pop\n      pop\n      jump\t// out\n        /* \"#utility.yul\":16500:16648   */\n    tag_152:\n        /* \"#utility.yul\":16598:16604   */\n      dup3\n        /* \"#utility.yul\":16593:16596   */\n      dup2\n        /* \"#utility.yul\":16588:16591   */\n      dup4\n        /* \"#utility.yul\":16575:16605   */\n      calldatacopy\n        /* \"#utility.yul\":16639:16640   */\n      0x00\n        /* \"#utility.yul\":16630:16636   */\n      dup4\n        /* \"#utility.yul\":16625:16628   */\n      dup4\n        /* \"#utility.yul\":16621:16637   */\n      add\n        /* \"#utility.yul\":16614:16641   */\n      mstore\n        /* \"#utility.yul\":16500:16648   */\n      pop\n      pop\n      pop\n      jump\t// out\n        /* \"#utility.yul\":16678:16995   */\n    tag_153:\n        /* \"#utility.yul\":16776:16779   */\n      0x00\n        /* \"#utility.yul\":16797:16868   */\n      tag_323\n        /* \"#utility.yul\":16861:16867   */\n      dup4\n        /* \"#utility.yul\":16856:16859   */\n      dup6\n        /* \"#utility.yul\":16797:16868   */\n      tag_128\n      jump\t// in\n    tag_323:\n        /* \"#utility.yul\":16790:16868   */\n      swap4\n      pop\n        /* \"#utility.yul\":16878:16934   */\n      tag_324\n        /* \"#utility.yul\":16927:16933   */\n      dup4\n        /* \"#utility.yul\":16922:16925   */\n      dup6\n        /* \"#utility.yul\":16915:16920   */\n      dup5\n        /* \"#utility.yul\":16878:16934   */\n      tag_152\n      jump\t// in\n    tag_324:\n        /* \"#utility.yul\":16959:16988   */\n      tag_325\n        /* \"#utility.yul\":16981:16987   */\n      dup4\n        /* \"#utility.yul\":16959:16988   */\n      tag_115\n      jump\t// in\n    tag_325:\n        /* \"#utility.yul\":16954:16957   */\n      dup5\n        /* \"#utility.yul\":16950:16989   */\n      add\n        /* \"#utility.yul\":16943:16989   */\n      swap1\n      pop\n        /* \"#utility.yul\":16678:16995   */\n      swap4\n      swap3\n      pop\n      pop\n      pop\n      jump\t// out\n        /* \"#utility.yul\":17001:17776   */\n    tag_89:\n        /* \"#utility.yul\":17238:17242   */\n      0x00\n        /* \"#utility.yul\":17276:17279   */\n      0x80\n        /* \"#utility.yul\":17265:17274   */\n      dup3\n        /* \"#utility.yul\":17261:17280   */\n      add\n        /* \"#utility.yul\":17253:17280   */\n      swap1\n      pop\n        /* \"#utility.yul\":17326:17335   */\n      dup2\n        /* \"#utility.yul\":17320:17324   */\n      dup2\n        /* \"#utility.yul\":17316:17336   */\n      sub\n        /* \"#utility.yul\":17312:17313   */\n      0x00\n        /* \"#utility.yul\":17301:17310   */\n      dup4\n        /* \"#utility.yul\":17297:17314   */\n      add\n        /* \"#utility.yul\":17290:17337   */\n      mstore\n        /* \"#utility.yul\":17354:17442   */\n      tag_327\n        /* \"#utility.yul\":17437:17441   */\n      dup2\n        /* \"#utility.yul\":17428:17434   */\n      dup9\n        /* \"#utility.yul\":17420:17426   */\n      dup11\n        /* \"#utility.yul\":17354:17442   */\n      tag_153\n      jump\t// in\n    tag_327:\n        /* \"#utility.yul\":17346:17442   */\n      swap1\n      pop\n        /* \"#utility.yul\":17489:17498   */\n      dup2\n        /* \"#utility.yul\":17483:17487   */\n      dup2\n        /* \"#utility.yul\":17479:17499   */\n      sub\n        /* \"#utility.yul\":17474:17476   */\n      0x20\n        /* \"#utility.yul\":17463:17472   */\n      dup4\n        /* \"#utility.yul\":17459:17477   */\n      add\n        /* \"#utility.yul\":17452:17500   */\n      mstore\n        /* \"#utility.yul\":17517:17605   */\n      tag_328\n        /* \"#utility.yul\":17600:17604   */\n      dup2\n        /* \"#utility.yul\":17591:17597   */\n      dup7\n        /* \"#utility.yul\":17583:17589   */\n      dup9\n        /* \"#utility.yul\":17517:17605   */\n      tag_153\n      jump\t// in\n    tag_328:\n        /* \"#utility.yul\":17509:17605   */\n      swap1\n      pop\n        /* \"#utility.yul\":17615:17687   */\n      tag_329\n        /* \"#utility.yul\":17683:17685   */\n      0x40\n        /* \"#utility.yul\":17672:17681   */\n      dup4\n        /* \"#utility.yul\":17668:17686   */\n      add\n        /* \"#utility.yul\":17659:17665   */\n      dup6\n        /* \"#utility.yul\":17615:17687   */\n      tag_120\n      jump\t// in\n    tag_329:\n        /* \"#utility.yul\":17697:17769   */\n      tag_330\n        /* \"#utility.yul\":17765:17767   */\n      0x60\n        /* \"#utility.yul\":17754:17763   */\n      dup4\n        /* \"#utility.yul\":17750:17768   */\n      add\n        /* \"#utility.yul\":17741:17747   */\n      dup5\n        /* \"#utility.yul\":17697:17769   */\n      tag_120\n      jump\t// in\n    tag_330:\n        /* \"#utility.yul\":17001:17776   */\n      swap8\n      swap7\n      pop\n      pop\n      pop\n      pop\n      pop\n      pop\n      pop\n      jump\t// out\n\n    auxdata: 0xa2646970667358221220f52f64eaf2d3e28269c9b1540d7d28ab45a4db143d288846d7fc7ba45af145e364736f6c634300081e0033\n}\n",
				"bytecode": {
					"linkReferences": {},
					"object": "6080604052348015600e575f5ffd5b5060015f81905550611350806100235f395ff3fe608060405260043610610085575f3560e01c80636f9fb98a116100585780636f9fb98a1461015b578063a0d0352614610185578063e0dfa8fa146101c1578063e729e3a4146101fd578063f25b3f991461023957610085565b806304c075691461008957806328ed8400146100c5578063360e2cb41461010157806361b8ce8c14610131575b5f5ffd5b348015610094575f5ffd5b506100af60048036038101906100aa9190610a3f565b61027a565b6040516100bc9190610bb5565b60405180910390f35b3480156100d0575f5ffd5b506100eb60048036038101906100e69190610bff565b610437565b6040516100f89190610c39565b60405180910390f35b61011b60048036038101906101169190610cb3565b61047d565b6040516101289190610c39565b60405180910390f35b34801561013c575f5ffd5b506101456107c9565b6040516101529190610c39565b60405180910390f35b348015610166575f5ffd5b5061016f6107ce565b60405161017c9190610c39565b60405180910390f35b348015610190575f5ffd5b506101ab60048036038101906101a69190610bff565b6107d5565b6040516101b89190610d4b565b60405180910390f35b3480156101cc575f5ffd5b506101e760048036038101906101e29190610bff565b610827565b6040516101f49190610d4b565b60405180910390f35b348015610208575f5ffd5b50610223600480360381019061021e9190610bff565b610844565b6040516102309190610c39565b60405180910390f35b348015610244575f5ffd5b5061025f600480360381019061025a9190610a3f565b610859565b60405161027196959493929190610dbb565b60405180910390f35b6102826109bc565b60015f8381526020019081526020015f206040518060c00160405290815f8201548152602001600182015f9054906101000a900473ffffffffffffffffffffffffffffffffffffffff1673ffffffffffffffffffffffffffffffffffffffff1673ffffffffffffffffffffffffffffffffffffffff16815260200160028201805461030c90610e55565b80601f016020809104026020016040519081016040528092919081815260200182805461033890610e55565b80156103835780601f1061035a57610100808354040283529160200191610383565b820191905f5260205f20905b81548152906001019060200180831161036657829003601f168201915b5050505050815260200160038201805461039c90610e55565b80601f01602080910402602001604051908101604052809291908181526020018280546103c890610e55565b80156104135780601f106103ea57610100808354040283529160200191610413565b820191905f5260205f20905b8154815290600101906020018083116103f657829003601f168201915b50505050508152602001600482015481526020016005820154815250509050919050565b5f60035f8373ffffffffffffffffffffffffffffffffffffffff1673ffffffffffffffffffffffffffffffffffffffff1681526020019081526020015f20549050919050565b5f5f34116104c0576040517f08c379a00000000000000000000000000000000000000000000000000000000081526004016104b790610ef5565b60405180910390fd5b60025f3373ffffffffffffffffffffffffffffffffffffffff1673ffffffffffffffffffffffffffffffffffffffff1681526020019081526020015f205f9054906101000a900460ff161561054a576040517f08c379a000000000000000000000000000000000000000000000000000000000815260040161054190610f5d565b60405180910390fd5b5f5f5f81548092919061055c90610fa8565b9190505590506040518060c001604052808281526020013373ffffffffffffffffffffffffffffffffffffffff16815260200187878080601f0160208091040260200160405190810160405280939291908181526020018383808284375f81840152601f19601f82011690508083019250505050505050815260200185858080601f0160208091040260200160405190810160405280939291908181526020018383808284375f81840152601f19601f8201169050808301925050505050505081526020014281526020013481525060015f8381526020019081526020015f205f820151815f01556020820151816001015f6101000a81548173ffffffffffffffffffffffffffffffffffffffff021916908373ffffffffffffffffffffffffffffffffffffffff160217905550604082015181600201908161069f91906111bc565b5060608201518160030190816106b591906111bc565b506080820151816004015560a08201518160050155905050600160025f3373ffffffffffffffffffffffffffffffffffffffff1673ffffffffffffffffffffffffffffffffffffffff1681526020019081526020015f205f6101000a81548160ff0219169083151502179055508060035f3373ffffffffffffffffffffffffffffffffffffffff1673ffffffffffffffffffffffffffffffffffffffff1681526020019081526020015f2081905550803373ffffffffffffffffffffffffffffffffffffffff167f5fbb9f698d469c6c4e572b1353f1fb23508e8d92f0f4f970fe655030c9cbbc6e8888888842346040516107b5969594939291906112c5565b60405180910390a380915050949350505050565b5f5481565b5f47905090565b5f60025f8373ffffffffffffffffffffffffffffffffffffffff1673ffffffffffffffffffffffffffffffffffffffff1681526020019081526020015f205f9054906101000a900460ff169050919050565b6002602052805f5260405f205f915054906101000a900460ff1681565b6003602052805f5260405f205f915090505481565b6001602052805f5260405f205f91509050805f015490806001015f9054906101000a900473ffffffffffffffffffffffffffffffffffffffff16908060020180546108a390610e55565b80601f01602080910402602001604051908101604052809291908181526020018280546108cf90610e55565b801561091a5780601f106108f15761010080835404028352916020019161091a565b820191905f5260205f20905b8154815290600101906020018083116108fd57829003601f168201915b50505050509080600301805461092f90610e55565b80601f016020809104026020016040519081016040528092919081815260200182805461095b90610e55565b80156109a65780601f1061097d576101008083540402835291602001916109a6565b820191905f5260205f20905b81548152906001019060200180831161098957829003601f168201915b5050505050908060040154908060050154905086565b6040518060c001604052805f81526020015f73ffffffffffffffffffffffffffffffffffffffff16815260200160608152602001606081526020015f81526020015f81525090565b5f5ffd5b5f5ffd5b5f819050919050565b610a1e81610a0c565b8114610a28575f5ffd5b50565b5f81359050610a3981610a15565b92915050565b5f60208284031215610a5457610a53610a04565b5b5f610a6184828501610a2b565b91505092915050565b610a7381610a0c565b82525050565b5f73ffffffffffffffffffffffffffffffffffffffff82169050919050565b5f610aa282610a79565b9050919050565b610ab281610a98565b82525050565b5f81519050919050565b5f82825260208201905092915050565b8281835e5f83830152505050565b5f601f19601f8301169050919050565b5f610afa82610ab8565b610b048185610ac2565b9350610b14818560208601610ad2565b610b1d81610ae0565b840191505092915050565b5f60c083015f830151610b3d5f860182610a6a565b506020830151610b506020860182610aa9565b5060408301518482036040860152610b688282610af0565b91505060608301518482036060860152610b828282610af0565b9150506080830151610b976080860182610a6a565b5060a0830151610baa60a0860182610a6a565b508091505092915050565b5f6020820190508181035f830152610bcd8184610b28565b905092915050565b610bde81610a98565b8114610be8575f5ffd5b50565b5f81359050610bf981610bd5565b92915050565b5f60208284031215610c1457610c13610a04565b5b5f610c2184828501610beb565b91505092915050565b610c3381610a0c565b82525050565b5f602082019050610c4c5f830184610c2a565b92915050565b5f5ffd5b5f5ffd5b5f5ffd5b5f5f83601f840112610c7357610c72610c52565b5b8235905067ffffffffffffffff811115610c9057610c8f610c56565b5b602083019150836001820283011115610cac57610cab610c5a565b5b9250929050565b5f5f5f5f60408587031215610ccb57610cca610a04565b5b5f85013567ffffffffffffffff811115610ce857610ce7610a08565b5b610cf487828801610c5e565b9450945050602085013567ffffffffffffffff811115610d1757610d16610a08565b5b610d2387828801610c5e565b925092505092959194509250565b5f8115159050919050565b610d4581610d31565b82525050565b5f602082019050610d5e5f830184610d3c565b92915050565b610d6d81610a98565b82525050565b5f82825260208201905092915050565b5f610d8d82610ab8565b610d978185610d73565b9350610da7818560208601610ad2565b610db081610ae0565b840191505092915050565b5f60c082019050610dce5f830189610c2a565b610ddb6020830188610d64565b8181036040830152610ded8187610d83565b90508181036060830152610e018186610d83565b9050610e106080830185610c2a565b610e1d60a0830184610c2a565b979650505050505050565b7f4e487b71000000000000000000000000000000000000000000000000000000005f52602260045260245ffd5b5f6002820490506001821680610e6c57607f821691505b602082108103610e7f57610e7e610e28565b5b50919050565b7f596f75206d7573742073656e6420736f6d6520457468657220746f20726567695f8201527f73746572206120426c6f636b4944000000000000000000000000000000000000602082015250565b5f610edf602e83610d73565b9150610eea82610e85565b604082019050919050565b5f6020820190508181035f830152610f0c81610ed3565b9050919050565b7f4163636f756e7420616c726561647920686173206120426c6f636b49440000005f82015250565b5f610f47601d83610d73565b9150610f5282610f13565b602082019050919050565b5f6020820190508181035f830152610f7481610f3b565b9050919050565b7f4e487b71000000000000000000000000000000000000000000000000000000005f52601160045260245ffd5b5f610fb282610a0c565b91507fffffffffffffffffffffffffffffffffffffffffffffffffffffffffffffffff8203610fe457610fe3610f7b565b5b600182019050919050565b7f4e487b71000000000000000000000000000000000000000000000000000000005f52604160045260245ffd5b5f819050815f5260205f209050919050565b5f6020601f8301049050919050565b5f82821b905092915050565b5f600883026110787fffffffffffffffffffffffffffffffffffffffffffffffffffffffffffffffff8261103d565b611082868361103d565b95508019841693508086168417925050509392505050565b5f819050919050565b5f6110bd6110b86110b384610a0c565b61109a565b610a0c565b9050919050565b5f819050919050565b6110d6836110a3565b6110ea6110e2826110c4565b848454611049565b825550505050565b5f5f905090565b6111016110f2565b61110c8184846110cd565b505050565b5b8181101561112f576111245f826110f9565b600181019050611112565b5050565b601f821115611174576111458161101c565b61114e8461102e565b8101602085101561115d578190505b6111716111698561102e565b830182611111565b50505b505050565b5f82821c905092915050565b5f6111945f1984600802611179565b1980831691505092915050565b5f6111ac8383611185565b9150826002028217905092915050565b6111c582610ab8565b67ffffffffffffffff8111156111de576111dd610fef565b5b6111e88254610e55565b6111f3828285611133565b5f60209050601f831160018114611224575f8415611212578287015190505b61121c85826111a1565b865550611283565b601f1984166112328661101c565b5f5b8281101561125957848901518255600182019150602085019450602081019050611234565b868310156112765784890151611272601f891682611185565b8355505b6001600288020188555050505b505050505050565b828183375f83830152505050565b5f6112a48385610d73565b93506112b183858461128b565b6112ba83610ae0565b840190509392505050565b5f6080820190508181035f8301526112de81888a611299565b905081810360208301526112f3818688611299565b90506113026040830185610c2a565b61130f6060830184610c2a565b97965050505050505056fea2646970667358221220f52f64eaf2d3e28269c9b1540d7d28ab45a4db143d288846d7fc7ba45af145e364736f6c634300081e0033",
					"opcodes": "PUSH1 0x80 PUSH1 0x40 MSTORE CALLVALUE DUP1 ISZERO PUSH1 0xE JUMPI PUSH0 PUSH0 REVERT JUMPDEST POP PUSH1 0x1 PUSH0 DUP2 SWAP1 SSTORE POP PUSH2 0x1350 DUP1 PUSH2 0x23 PUSH0 CODECOPY PUSH0 RETURN INVALID PUSH1 0x80 PUSH1 0x40 MSTORE PUSH1 0x4 CALLDATASIZE LT PUSH2 0x85 JUMPI PUSH0 CALLDATALOAD PUSH1 0xE0 SHR DUP1 PUSH4 0x6F9FB98A GT PUSH2 0x58 JUMPI DUP1 PUSH4 0x6F9FB98A EQ PUSH2 0x15B JUMPI DUP1 PUSH4 0xA0D03526 EQ PUSH2 0x185 JUMPI DUP1 PUSH4 0xE0DFA8FA EQ PUSH2 0x1C1 JUMPI DUP1 PUSH4 0xE729E3A4 EQ PUSH2 0x1FD JUMPI DUP1 PUSH4 0xF25B3F99 EQ PUSH2 0x239 JUMPI PUSH2 0x85 JUMP JUMPDEST DUP1 PUSH4 0x4C07569 EQ PUSH2 0x89 JUMPI DUP1 PUSH4 0x28ED8400 EQ PUSH2 0xC5 JUMPI DUP1 PUSH4 0x360E2CB4 EQ PUSH2 0x101 JUMPI DUP1 PUSH4 0x61B8CE8C EQ PUSH2 0x131 JUMPI JUMPDEST PUSH0 PUSH0 REVERT JUMPDEST CALLVALUE DUP1 ISZERO PUSH2 0x94 JUMPI PUSH0 PUSH0 REVERT JUMPDEST POP PUSH2 0xAF PUSH1 0x4 DUP1 CALLDATASIZE SUB DUP2 ADD SWAP1 PUSH2 0xAA SWAP2 SWAP1 PUSH2 0xA3F JUMP JUMPDEST PUSH2 0x27A JUMP JUMPDEST PUSH1 0x40 MLOAD PUSH2 0xBC SWAP2 SWAP1 PUSH2 0xBB5 JUMP JUMPDEST PUSH1 0x40 MLOAD DUP1 SWAP2 SUB SWAP1 RETURN JUMPDEST CALLVALUE DUP1 ISZERO PUSH2 0xD0 JUMPI PUSH0 PUSH0 REVERT JUMPDEST POP PUSH2 0xEB PUSH1 0x4 DUP1 CALLDATASIZE SUB DUP2 ADD SWAP1 PUSH2 0xE6 SWAP2 SWAP1 PUSH2 0xBFF JUMP JUMPDEST PUSH2 0x437 JUMP JUMPDEST PUSH1 0x40 MLOAD PUSH2 0xF8 SWAP2 SWAP1 PUSH2 0xC39 JUMP JUMPDEST PUSH1 0x40 MLOAD DUP1 SWAP2 SUB SWAP1 RETURN JUMPDEST PUSH2 0x11B PUSH1 0x4 DUP1 CALLDATASIZE SUB DUP2 ADD SWAP1 PUSH2 0x116 SWAP2 SWAP1 PUSH2 0xCB3 JUMP JUMPDEST PUSH2 0x47D JUMP JUMPDEST PUSH1 0x40 MLOAD PUSH2 0x128 SWAP2 SWAP1 PUSH2 0xC39 JUMP JUMPDEST PUSH1 0x40 MLOAD DUP1 SWAP2 SUB SWAP1 RETURN JUMPDEST CALLVALUE DUP1 ISZERO PUSH2 0x13C JUMPI PUSH0 PUSH0 REVERT JUMPDEST POP PUSH2 0x145 PUSH2 0x7C9 JUMP JUMPDEST PUSH1 0x40 MLOAD PUSH2 0x152 SWAP2 SWAP1 PUSH2 0xC39 JUMP JUMPDEST PUSH1 0x40 MLOAD DUP1 SWAP2 SUB SWAP1 RETURN JUMPDEST CALLVALUE DUP1 ISZERO PUSH2 0x166 JUMPI PUSH0 PUSH0 REVERT JUMPDEST POP PUSH2 0x16F PUSH2 0x7CE JUMP JUMPDEST PUSH1 0x40 MLOAD PUSH2 0x17C SWAP2 SWAP1 PUSH2 0xC39 JUMP JUMPDEST PUSH1 0x40 MLOAD DUP1 SWAP2 SUB SWAP1 RETURN JUMPDEST CALLVALUE DUP1 ISZERO PUSH2 0x190 JUMPI PUSH0 PUSH0 REVERT JUMPDEST POP PUSH2 0x1AB PUSH1 0x4 DUP1 CALLDATASIZE SUB DUP2 ADD SWAP1 PUSH2 0x1A6 SWAP2 SWAP1 PUSH2 0xBFF JUMP JUMPDEST PUSH2 0x7D5 JUMP JUMPDEST PUSH1 0x40 MLOAD PUSH2 0x1B8 SWAP2 SWAP1 PUSH2 0xD4B JUMP JUMPDEST PUSH1 0x40 MLOAD DUP1 SWAP2 SUB SWAP1 RETURN JUMPDEST CALLVALUE DUP1 ISZERO PUSH2 0x1CC JUMPI PUSH0 PUSH0 REVERT JUMPDEST POP PUSH2 0x1E7 PUSH1 0x4 DUP1 CALLDATASIZE SUB DUP2 ADD SWAP1 PUSH2 0x1E2 SWAP2 SWAP1 PUSH2 0xBFF JUMP JUMPDEST PUSH2 0x827 JUMP JUMPDEST PUSH1 0x40 MLOAD PUSH2 0x1F4 SWAP2 SWAP1 PUSH2 0xD4B JUMP JUMPDEST PUSH1 0x40 MLOAD DUP1 SWAP2 SUB SWAP1 RETURN JUMPDEST CALLVALUE DUP1 ISZERO PUSH2 0x208 JUMPI PUSH0 PUSH0 REVERT JUMPDEST POP PUSH2 0x223 PUSH1 0x4 DUP1 CALLDATASIZE SUB DUP2 ADD SWAP1 PUSH2 0x21E SWAP2 SWAP1 PUSH2 0xBFF JUMP JUMPDEST PUSH2 0x844 JUMP JUMPDEST PUSH1 0x40 MLOAD PUSH2 0x230 SWAP2 SWAP1 PUSH2 0xC39 JUMP JUMPDEST PUSH1 0x40 MLOAD DUP1 SWAP2 SUB SWAP1 RETURN JUMPDEST CALLVALUE DUP1 ISZERO PUSH2 0x244 JUMPI PUSH0 PUSH0 REVERT JUMPDEST POP PUSH2 0x25F PUSH1 0x4 DUP1 CALLDATASIZE SUB DUP2 ADD SWAP1 PUSH2 0x25A SWAP2 SWAP1 PUSH2 0xA3F JUMP JUMPDEST PUSH2 0x859 JUMP JUMPDEST PUSH1 0x40 MLOAD PUSH2 0x271 SWAP7 SWAP6 SWAP5 SWAP4 SWAP3 SWAP2 SWAP1 PUSH2 0xDBB JUMP JUMPDEST PUSH1 0x40 MLOAD DUP1 SWAP2 SUB SWAP1 RETURN JUMPDEST PUSH2 0x282 PUSH2 0x9BC JUMP JUMPDEST PUSH1 0x1 PUSH0 DUP4 DUP2 MSTORE PUSH1 0x20 ADD SWAP1 DUP2 MSTORE PUSH1 0x20 ADD PUSH0 KECCAK256 PUSH1 0x40 MLOAD DUP1 PUSH1 0xC0 ADD PUSH1 0x40 MSTORE SWAP1 DUP2 PUSH0 DUP3 ADD SLOAD DUP2 MSTORE PUSH1 0x20 ADD PUSH1 0x1 DUP3 ADD PUSH0 SWAP1 SLOAD SWAP1 PUSH2 0x100 EXP SWAP1 DIV PUSH20 0xFFFFFFFFFFFFFFFFFFFFFFFFFFFFFFFFFFFFFFFF AND PUSH20 0xFFFFFFFFFFFFFFFFFFFFFFFFFFFFFFFFFFFFFFFF AND PUSH20 0xFFFFFFFFFFFFFFFFFFFFFFFFFFFFFFFFFFFFFFFF AND DUP2 MSTORE PUSH1 0x20 ADD PUSH1 0x2 DUP3 ADD DUP1 SLOAD PUSH2 0x30C SWAP1 PUSH2 0xE55 JUMP JUMPDEST DUP1 PUSH1 0x1F ADD PUSH1 0x20 DUP1 SWAP2 DIV MUL PUSH1 0x20 ADD PUSH1 0x40 MLOAD SWAP1 DUP2 ADD PUSH1 0x40 MSTORE DUP1 SWAP3 SWAP2 SWAP1 DUP2 DUP2 MSTORE PUSH1 0x20 ADD DUP3 DUP1 SLOAD PUSH2 0x338 SWAP1 PUSH2 0xE55 JUMP JUMPDEST DUP1 ISZERO PUSH2 0x383 JUMPI DUP1 PUSH1 0x1F LT PUSH2 0x35A JUMPI PUSH2 0x100 DUP1 DUP4 SLOAD DIV MUL DUP4 MSTORE SWAP2 PUSH1 0x20 ADD SWAP2 PUSH2 0x383 JUMP JUMPDEST DUP3 ADD SWAP2 SWAP1 PUSH0 MSTORE PUSH1 0x20 PUSH0 KECCAK256 SWAP1 JUMPDEST DUP2 SLOAD DUP2 MSTORE SWAP1 PUSH1 0x1 ADD SWAP1 PUSH1 0x20 ADD DUP1 DUP4 GT PUSH2 0x366 JUMPI DUP3 SWAP1 SUB PUSH1 0x1F AND DUP3 ADD SWAP2 JUMPDEST POP POP POP POP POP DUP2 MSTORE PUSH1 0x20 ADD PUSH1 0x3 DUP3 ADD DUP1 SLOAD PUSH2 0x39C SWAP1 PUSH2 0xE55 JUMP JUMPDEST DUP1 PUSH1 0x1F ADD PUSH1 0x20 DUP1 SWAP2 DIV MUL PUSH1 0x20 ADD PUSH1 0x40 MLOAD SWAP1 DUP2 ADD PUSH1 0x40 MSTORE DUP1 SWAP3 SWAP2 SWAP1 DUP2 DUP2 MSTORE PUSH1 0x20 ADD DUP3 DUP1 SLOAD PUSH2 0x3C8 SWAP1 PUSH2 0xE55 JUMP JUMPDEST DUP1 ISZERO PUSH2 0x413 JUMPI DUP1 PUSH1 0x1F LT PUSH2 0x3EA JUMPI PUSH2 0x100 DUP1 DUP4 SLOAD DIV MUL DUP4 MSTORE SWAP2 PUSH1 0x20 ADD SWAP2 PUSH2 0x413 JUMP JUMPDEST DUP3 ADD SWAP2 SWAP1 PUSH0 MSTORE PUSH1 0x20 PUSH0 KECCAK256 SWAP1 JUMPDEST DUP2 SLOAD DUP2 MSTORE SWAP1 PUSH1 0x1 ADD SWAP1 PUSH1 0x20 ADD DUP1 DUP4 GT PUSH2 0x3F6 JUMPI DUP3 SWAP1 SUB PUSH1 0x1F AND DUP3 ADD SWAP2 JUMPDEST POP POP POP POP POP DUP2 MSTORE PUSH1 0x20 ADD PUSH1 0x4 DUP3 ADD SLOAD DUP2 MSTORE PUSH1 0x20 ADD PUSH1 0x5 DUP3 ADD SLOAD DUP2 MSTORE POP POP SWAP1 POP SWAP2 SWAP1 POP JUMP JUMPDEST PUSH0 PUSH1 0x3 PUSH0 DUP4 PUSH20 0xFFFFFFFFFFFFFFFFFFFFFFFFFFFFFFFFFFFFFFFF AND PUSH20 0xFFFFFFFFFFFFFFFFFFFFFFFFFFFFFFFFFFFFFFFF AND DUP2 MSTORE PUSH1 0x20 ADD SWAP1 DUP2 MSTORE PUSH1 0x20 ADD PUSH0 KECCAK256 SLOAD SWAP1 POP SWAP2 SWAP1 POP JUMP JUMPDEST PUSH0 PUSH0 CALLVALUE GT PUSH2 0x4C0 JUMPI PUSH1 0x40 MLOAD PUSH32 0x8C379A000000000000000000000000000000000000000000000000000000000 DUP2 MSTORE PUSH1 0x4 ADD PUSH2 0x4B7 SWAP1 PUSH2 0xEF5 JUMP JUMPDEST PUSH1 0x40 MLOAD DUP1 SWAP2 SUB SWAP1 REVERT JUMPDEST PUSH1 0x2 PUSH0 CALLER PUSH20 0xFFFFFFFFFFFFFFFFFFFFFFFFFFFFFFFFFFFFFFFF AND PUSH20 0xFFFFFFFFFFFFFFFFFFFFFFFFFFFFFFFFFFFFFFFF AND DUP2 MSTORE PUSH1 0x20 ADD SWAP1 DUP2 MSTORE PUSH1 0x20 ADD PUSH0 KECCAK256 PUSH0 SWAP1 SLOAD SWAP1 PUSH2 0x100 EXP SWAP1 DIV PUSH1 0xFF AND ISZERO PUSH2 0x54A JUMPI PUSH1 0x40 MLOAD PUSH32 0x8C379A000000000000000000000000000000000000000000000000000000000 DUP2 MSTORE PUSH1 0x4 ADD PUSH2 0x541 SWAP1 PUSH2 0xF5D JUMP JUMPDEST PUSH1 0x40 MLOAD DUP1 SWAP2 SUB SWAP1 REVERT JUMPDEST PUSH0 PUSH0 PUSH0 DUP2 SLOAD DUP1 SWAP3 SWAP2 SWAP1 PUSH2 0x55C SWAP1 PUSH2 0xFA8 JUMP JUMPDEST SWAP2 SWAP1 POP SSTORE SWAP1 POP PUSH1 0x40 MLOAD DUP1 PUSH1 0xC0 ADD PUSH1 0x40 MSTORE DUP1 DUP3 DUP2 MSTORE PUSH1 0x20 ADD CALLER PUSH20 0xFFFFFFFFFFFFFFFFFFFFFFFFFFFFFFFFFFFFFFFF AND DUP2 MSTORE PUSH1 0x20 ADD DUP8 DUP8 DUP1 DUP1 PUSH1 0x1F ADD PUSH1 0x20 DUP1 SWAP2 DIV MUL PUSH1 0x20 ADD PUSH1 0x40 MLOAD SWAP1 DUP2 ADD PUSH1 0x40 MSTORE DUP1 SWAP4 SWAP3 SWAP2 SWAP1 DUP2 DUP2 MSTORE PUSH1 0x20 ADD DUP4 DUP4 DUP1 DUP3 DUP5 CALLDATACOPY PUSH0 DUP2 DUP5 ADD MSTORE PUSH1 0x1F NOT PUSH1 0x1F DUP3 ADD AND SWAP1 POP DUP1 DUP4 ADD SWAP3 POP POP POP POP POP POP POP DUP2 MSTORE PUSH1 0x20 ADD DUP6 DUP6 DUP1 DUP1 PUSH1 0x1F ADD PUSH1 0x20 DUP1 SWAP2 DIV MUL PUSH1 0x20 ADD PUSH1 0x40 MLOAD SWAP1 DUP2 ADD PUSH1 0x40 MSTORE DUP1 SWAP4 SWAP3 SWAP2 SWAP1 DUP2 DUP2 MSTORE PUSH1 0x20 ADD DUP4 DUP4 DUP1 DUP3 DUP5 CALLDATACOPY PUSH0 DUP2 DUP5 ADD MSTORE PUSH1 0x1F NOT PUSH1 0x1F DUP3 ADD AND SWAP1 POP DUP1 DUP4 ADD SWAP3 POP POP POP POP POP POP POP DUP2 MSTORE PUSH1 0x20 ADD TIMESTAMP DUP2 MSTORE PUSH1 0x20 ADD CALLVALUE DUP2 MSTORE POP PUSH1 0x1 PUSH0 DUP4 DUP2 MSTORE PUSH1 0x20 ADD SWAP1 DUP2 MSTORE PUSH1 0x20 ADD PUSH0 KECCAK256 PUSH0 DUP3 ADD MLOAD DUP2 PUSH0 ADD SSTORE PUSH1 0x20 DUP3 ADD MLOAD DUP2 PUSH1 0x1 ADD PUSH0 PUSH2 0x100 EXP DUP2 SLOAD DUP2 PUSH20 0xFFFFFFFFFFFFFFFFFFFFFFFFFFFFFFFFFFFFFFFF MUL NOT AND SWAP1 DUP4 PUSH20 0xFFFFFFFFFFFFFFFFFFFFFFFFFFFFFFFFFFFFFFFF AND MUL OR SWAP1 SSTORE POP PUSH1 0x40 DUP3 ADD MLOAD DUP2 PUSH1 0x2 ADD SWAP1 DUP2 PUSH2 0x69F SWAP2 SWAP1 PUSH2 0x11BC JUMP JUMPDEST POP PUSH1 0x60 DUP3 ADD MLOAD DUP2 PUSH1 0x3 ADD SWAP1 DUP2 PUSH2 0x6B5 SWAP2 SWAP1 PUSH2 0x11BC JUMP JUMPDEST POP PUSH1 0x80 DUP3 ADD MLOAD DUP2 PUSH1 0x4 ADD SSTORE PUSH1 0xA0 DUP3 ADD MLOAD DUP2 PUSH1 0x5 ADD SSTORE SWAP1 POP POP PUSH1 0x1 PUSH1 0x2 PUSH0 CALLER PUSH20 0xFFFFFFFFFFFFFFFFFFFFFFFFFFFFFFFFFFFFFFFF AND PUSH20 0xFFFFFFFFFFFFFFFFFFFFFFFFFFFFFFFFFFFFFFFF AND DUP2 MSTORE PUSH1 0x20 ADD SWAP1 DUP2 MSTORE PUSH1 0x20 ADD PUSH0 KECCAK256 PUSH0 PUSH2 0x100 EXP DUP2 SLOAD DUP2 PUSH1 0xFF MUL NOT AND SWAP1 DUP4 ISZERO ISZERO MUL OR SWAP1 SSTORE POP DUP1 PUSH1 0x3 PUSH0 CALLER PUSH20 0xFFFFFFFFFFFFFFFFFFFFFFFFFFFFFFFFFFFFFFFF AND PUSH20 0xFFFFFFFFFFFFFFFFFFFFFFFFFFFFFFFFFFFFFFFF AND DUP2 MSTORE PUSH1 0x20 ADD SWAP1 DUP2 MSTORE PUSH1 0x20 ADD PUSH0 KECCAK256 DUP2 SWAP1 SSTORE POP DUP1 CALLER PUSH20 0xFFFFFFFFFFFFFFFFFFFFFFFFFFFFFFFFFFFFFFFF AND PUSH32 0x5FBB9F698D469C6C4E572B1353F1FB23508E8D92F0F4F970FE655030C9CBBC6E DUP9 DUP9 DUP9 DUP9 TIMESTAMP CALLVALUE PUSH1 0x40 MLOAD PUSH2 0x7B5 SWAP7 SWAP6 SWAP5 SWAP4 SWAP3 SWAP2 SWAP1 PUSH2 0x12C5 JUMP JUMPDEST PUSH1 0x40 MLOAD DUP1 SWAP2 SUB SWAP1 LOG3 DUP1 SWAP2 POP POP SWAP5 SWAP4 POP POP POP POP JUMP JUMPDEST PUSH0 SLOAD DUP2 JUMP JUMPDEST PUSH0 SELFBALANCE SWAP1 POP SWAP1 JUMP JUMPDEST PUSH0 PUSH1 0x2 PUSH0 DUP4 PUSH20 0xFFFFFFFFFFFFFFFFFFFFFFFFFFFFFFFFFFFFFFFF AND PUSH20 0xFFFFFFFFFFFFFFFFFFFFFFFFFFFFFFFFFFFFFFFF AND DUP2 MSTORE PUSH1 0x20 ADD SWAP1 DUP2 MSTORE PUSH1 0x20 ADD PUSH0 KECCAK256 PUSH0 SWAP1 SLOAD SWAP1 PUSH2 0x100 EXP SWAP1 DIV PUSH1 0xFF AND SWAP1 POP SWAP2 SWAP1 POP JUMP JUMPDEST PUSH1 0x2 PUSH1 0x20 MSTORE DUP1 PUSH0 MSTORE PUSH1 0x40 PUSH0 KECCAK256 PUSH0 SWAP2 POP SLOAD SWAP1 PUSH2 0x100 EXP SWAP1 DIV PUSH1 0xFF AND DUP2 JUMP JUMPDEST PUSH1 0x3 PUSH1 0x20 MSTORE DUP1 PUSH0 MSTORE PUSH1 0x40 PUSH0 KECCAK256 PUSH0 SWAP2 POP SWAP1 POP SLOAD DUP2 JUMP JUMPDEST PUSH1 0x1 PUSH1 0x20 MSTORE DUP1 PUSH0 MSTORE PUSH1 0x40 PUSH0 KECCAK256 PUSH0 SWAP2 POP SWAP1 POP DUP1 PUSH0 ADD SLOAD SWAP1 DUP1 PUSH1 0x1 ADD PUSH0 SWAP1 SLOAD SWAP1 PUSH2 0x100 EXP SWAP1 DIV PUSH20 0xFFFFFFFFFFFFFFFFFFFFFFFFFFFFFFFFFFFFFFFF AND SWAP1 DUP1 PUSH1 0x2 ADD DUP1 SLOAD PUSH2 0x8A3 SWAP1 PUSH2 0xE55 JUMP JUMPDEST DUP1 PUSH1 0x1F ADD PUSH1 0x20 DUP1 SWAP2 DIV MUL PUSH1 0x20 ADD PUSH1 0x40 MLOAD SWAP1 DUP2 ADD PUSH1 0x40 MSTORE DUP1 SWAP3 SWAP2 SWAP1 DUP2 DUP2 MSTORE PUSH1 0x20 ADD DUP3 DUP1 SLOAD PUSH2 0x8CF SWAP1 PUSH2 0xE55 JUMP JUMPDEST DUP1 ISZERO PUSH2 0x91A JUMPI DUP1 PUSH1 0x1F LT PUSH2 0x8F1 JUMPI PUSH2 0x100 DUP1 DUP4 SLOAD DIV MUL DUP4 MSTORE SWAP2 PUSH1 0x20 ADD SWAP2 PUSH2 0x91A JUMP JUMPDEST DUP3 ADD SWAP2 SWAP1 PUSH0 MSTORE PUSH1 0x20 PUSH0 KECCAK256 SWAP1 JUMPDEST DUP2 SLOAD DUP2 MSTORE SWAP1 PUSH1 0x1 ADD SWAP1 PUSH1 0x20 ADD DUP1 DUP4 GT PUSH2 0x8FD JUMPI DUP3 SWAP1 SUB PUSH1 0x1F AND DUP3 ADD SWAP2 JUMPDEST POP POP POP POP POP SWAP1 DUP1 PUSH1 0x3 ADD DUP1 SLOAD PUSH2 0x92F SWAP1 PUSH2 0xE55 JUMP JUMPDEST DUP1 PUSH1 0x1F ADD PUSH1 0x20 DUP1 SWAP2 DIV MUL PUSH1 0x20 ADD PUSH1 0x40 MLOAD SWAP1 DUP2 ADD PUSH1 0x40 MSTORE DUP1 SWAP3 SWAP2 SWAP1 DUP2 DUP2 MSTORE PUSH1 0x20 ADD DUP3 DUP1 SLOAD PUSH2 0x95B SWAP1 PUSH2 0xE55 JUMP JUMPDEST DUP1 ISZERO PUSH2 0x9A6 JUMPI DUP1 PUSH1 0x1F LT PUSH2 0x97D JUMPI PUSH2 0x100 DUP1 DUP4 SLOAD DIV MUL DUP4 MSTORE SWAP2 PUSH1 0x20 ADD SWAP2 PUSH2 0x9A6 JUMP JUMPDEST DUP3 ADD SWAP2 SWAP1 PUSH0 MSTORE PUSH1 0x20 PUSH0 KECCAK256 SWAP1 JUMPDEST DUP2 SLOAD DUP2 MSTORE SWAP1 PUSH1 0x1 ADD SWAP1 PUSH1 0x20 ADD DUP1 DUP4 GT PUSH2 0x989 JUMPI DUP3 SWAP1 SUB PUSH1 0x1F AND DUP3 ADD SWAP2 JUMPDEST POP POP POP POP POP SWAP1 DUP1 PUSH1 0x4 ADD SLOAD SWAP1 DUP1 PUSH1 0x5 ADD SLOAD SWAP1 POP DUP7 JUMP JUMPDEST PUSH1 0x40 MLOAD DUP1 PUSH1 0xC0 ADD PUSH1 0x40 MSTORE DUP1 PUSH0 DUP2 MSTORE PUSH1 0x20 ADD PUSH0 PUSH20 0xFFFFFFFFFFFFFFFFFFFFFFFFFFFFFFFFFFFFFFFF AND DUP2 MSTORE PUSH1 0x20 ADD PUSH1 0x60 DUP2 MSTORE PUSH1 0x20 ADD PUSH1 0x60 DUP2 MSTORE PUSH1 0x20 ADD PUSH0 DUP2 MSTORE PUSH1 0x20 ADD PUSH0 DUP2 MSTORE POP SWAP1 JUMP JUMPDEST PUSH0 PUSH0 REVERT JUMPDEST PUSH0 PUSH0 REVERT JUMPDEST PUSH0 DUP2 SWAP1 POP SWAP2 SWAP1 POP JUMP JUMPDEST PUSH2 0xA1E DUP2 PUSH2 0xA0C JUMP JUMPDEST DUP2 EQ PUSH2 0xA28 JUMPI PUSH0 PUSH0 REVERT JUMPDEST POP JUMP JUMPDEST PUSH0 DUP2 CALLDATALOAD SWAP1 POP PUSH2 0xA39 DUP2 PUSH2 0xA15 JUMP JUMPDEST SWAP3 SWAP2 POP POP JUMP JUMPDEST PUSH0 PUSH1 0x20 DUP3 DUP5 SUB SLT ISZERO PUSH2 0xA54 JUMPI PUSH2 0xA53 PUSH2 0xA04 JUMP JUMPDEST JUMPDEST PUSH0 PUSH2 0xA61 DUP5 DUP3 DUP6 ADD PUSH2 0xA2B JUMP JUMPDEST SWAP2 POP POP SWAP3 SWAP2 POP POP JUMP JUMPDEST PUSH2 0xA73 DUP2 PUSH2 0xA0C JUMP JUMPDEST DUP3 MSTORE POP POP JUMP JUMPDEST PUSH0 PUSH20 0xFFFFFFFFFFFFFFFFFFFFFFFFFFFFFFFFFFFFFFFF DUP3 AND SWAP1 POP SWAP2 SWAP1 POP JUMP JUMPDEST PUSH0 PUSH2 0xAA2 DUP3 PUSH2 0xA79 JUMP JUMPDEST SWAP1 POP SWAP2 SWAP1 POP JUMP JUMPDEST PUSH2 0xAB2 DUP2 PUSH2 0xA98 JUMP JUMPDEST DUP3 MSTORE POP POP JUMP JUMPDEST PUSH0 DUP2 MLOAD SWAP1 POP SWAP2 SWAP1 POP JUMP JUMPDEST PUSH0 DUP3 DUP3 MSTORE PUSH1 0x20 DUP3 ADD SWAP1 POP SWAP3 SWAP2 POP POP JUMP JUMPDEST DUP3 DUP2 DUP4 MCOPY PUSH0 DUP4 DUP4 ADD MSTORE POP POP POP JUMP JUMPDEST PUSH0 PUSH1 0x1F NOT PUSH1 0x1F DUP4 ADD AND SWAP1 POP SWAP2 SWAP1 POP JUMP JUMPDEST PUSH0 PUSH2 0xAFA DUP3 PUSH2 0xAB8 JUMP JUMPDEST PUSH2 0xB04 DUP2 DUP6 PUSH2 0xAC2 JUMP JUMPDEST SWAP4 POP PUSH2 0xB14 DUP2 DUP6 PUSH1 0x20 DUP7 ADD PUSH2 0xAD2 JUMP JUMPDEST PUSH2 0xB1D DUP2 PUSH2 0xAE0 JUMP JUMPDEST DUP5 ADD SWAP2 POP POP SWAP3 SWAP2 POP POP JUMP JUMPDEST PUSH0 PUSH1 0xC0 DUP4 ADD PUSH0 DUP4 ADD MLOAD PUSH2 0xB3D PUSH0 DUP7 ADD DUP3 PUSH2 0xA6A JUMP JUMPDEST POP PUSH1 0x20 DUP4 ADD MLOAD PUSH2 0xB50 PUSH1 0x20 DUP7 ADD DUP3 PUSH2 0xAA9 JUMP JUMPDEST POP PUSH1 0x40 DUP4 ADD MLOAD DUP5 DUP3 SUB PUSH1 0x40 DUP7 ADD MSTORE PUSH2 0xB68 DUP3 DUP3 PUSH2 0xAF0 JUMP JUMPDEST SWAP2 POP POP PUSH1 0x60 DUP4 ADD MLOAD DUP5 DUP3 SUB PUSH1 0x60 DUP7 ADD MSTORE PUSH2 0xB82 DUP3 DUP3 PUSH2 0xAF0 JUMP JUMPDEST SWAP2 POP POP PUSH1 0x80 DUP4 ADD MLOAD PUSH2 0xB97 PUSH1 0x80 DUP7 ADD DUP3 PUSH2 0xA6A JUMP JUMPDEST POP PUSH1 0xA0 DUP4 ADD MLOAD PUSH2 0xBAA PUSH1 0xA0 DUP7 ADD DUP3 PUSH2 0xA6A JUMP JUMPDEST POP DUP1 SWAP2 POP POP SWAP3 SWAP2 POP POP JUMP JUMPDEST PUSH0 PUSH1 0x20 DUP3 ADD SWAP1 POP DUP2 DUP2 SUB PUSH0 DUP4 ADD MSTORE PUSH2 0xBCD DUP2 DUP5 PUSH2 0xB28 JUMP JUMPDEST SWAP1 POP SWAP3 SWAP2 POP POP JUMP JUMPDEST PUSH2 0xBDE DUP2 PUSH2 0xA98 JUMP JUMPDEST DUP2 EQ PUSH2 0xBE8 JUMPI PUSH0 PUSH0 REVERT JUMPDEST POP JUMP JUMPDEST PUSH0 DUP2 CALLDATALOAD SWAP1 POP PUSH2 0xBF9 DUP2 PUSH2 0xBD5 JUMP JUMPDEST SWAP3 SWAP2 POP POP JUMP JUMPDEST PUSH0 PUSH1 0x20 DUP3 DUP5 SUB SLT ISZERO PUSH2 0xC14 JUMPI PUSH2 0xC13 PUSH2 0xA04 JUMP JUMPDEST JUMPDEST PUSH0 PUSH2 0xC21 DUP5 DUP3 DUP6 ADD PUSH2 0xBEB JUMP JUMPDEST SWAP2 POP POP SWAP3 SWAP2 POP POP JUMP JUMPDEST PUSH2 0xC33 DUP2 PUSH2 0xA0C JUMP JUMPDEST DUP3 MSTORE POP POP JUMP JUMPDEST PUSH0 PUSH1 0x20 DUP3 ADD SWAP1 POP PUSH2 0xC4C PUSH0 DUP4 ADD DUP5 PUSH2 0xC2A JUMP JUMPDEST SWAP3 SWAP2 POP POP JUMP JUMPDEST PUSH0 PUSH0 REVERT JUMPDEST PUSH0 PUSH0 REVERT JUMPDEST PUSH0 PUSH0 REVERT JUMPDEST PUSH0 PUSH0 DUP4 PUSH1 0x1F DUP5 ADD SLT PUSH2 0xC73 JUMPI PUSH2 0xC72 PUSH2 0xC52 JUMP JUMPDEST JUMPDEST DUP3 CALLDATALOAD SWAP1 POP PUSH8 0xFFFFFFFFFFFFFFFF DUP2 GT ISZERO PUSH2 0xC90 JUMPI PUSH2 0xC8F PUSH2 0xC56 JUMP JUMPDEST JUMPDEST PUSH1 0x20 DUP4 ADD SWAP2 POP DUP4 PUSH1 0x1 DUP3 MUL DUP4 ADD GT ISZERO PUSH2 0xCAC JUMPI PUSH2 0xCAB PUSH2 0xC5A JUMP JUMPDEST JUMPDEST SWAP3 POP SWAP3 SWAP1 POP JUMP JUMPDEST PUSH0 PUSH0 PUSH0 PUSH0 PUSH1 0x40 DUP6 DUP8 SUB SLT ISZERO PUSH2 0xCCB JUMPI PUSH2 0xCCA PUSH2 0xA04 JUMP JUMPDEST JUMPDEST PUSH0 DUP6 ADD CALLDATALOAD PUSH8 0xFFFFFFFFFFFFFFFF DUP2 GT ISZERO PUSH2 0xCE8 JUMPI PUSH2 0xCE7 PUSH2 0xA08 JUMP JUMPDEST JUMPDEST PUSH2 0xCF4 DUP8 DUP3 DUP9 ADD PUSH2 0xC5E JUMP JUMPDEST SWAP5 POP SWAP5 POP POP PUSH1 0x20 DUP6 ADD CALLDATALOAD PUSH8 0xFFFFFFFFFFFFFFFF DUP2 GT ISZERO PUSH2 0xD17 JUMPI PUSH2 0xD16 PUSH2 0xA08 JUMP JUMPDEST JUMPDEST PUSH2 0xD23 DUP8 DUP3 DUP9 ADD PUSH2 0xC5E JUMP JUMPDEST SWAP3 POP SWAP3 POP POP SWAP3 SWAP6 SWAP2 SWAP5 POP SWAP3 POP JUMP JUMPDEST PUSH0 DUP2 ISZERO ISZERO SWAP1 POP SWAP2 SWAP1 POP JUMP JUMPDEST PUSH2 0xD45 DUP2 PUSH2 0xD31 JUMP JUMPDEST DUP3 MSTORE POP POP JUMP JUMPDEST PUSH0 PUSH1 0x20 DUP3 ADD SWAP1 POP PUSH2 0xD5E PUSH0 DUP4 ADD DUP5 PUSH2 0xD3C JUMP JUMPDEST SWAP3 SWAP2 POP POP JUMP JUMPDEST PUSH2 0xD6D DUP2 PUSH2 0xA98 JUMP JUMPDEST DUP3 MSTORE POP POP JUMP JUMPDEST PUSH0 DUP3 DUP3 MSTORE PUSH1 0x20 DUP3 ADD SWAP1 POP SWAP3 SWAP2 POP POP JUMP JUMPDEST PUSH0 PUSH2 0xD8D DUP3 PUSH2 0xAB8 JUMP JUMPDEST PUSH2 0xD97 DUP2 DUP6 PUSH2 0xD73 JUMP JUMPDEST SWAP4 POP PUSH2 0xDA7 DUP2 DUP6 PUSH1 0x20 DUP7 ADD PUSH2 0xAD2 JUMP JUMPDEST PUSH2 0xDB0 DUP2 PUSH2 0xAE0 JUMP JUMPDEST DUP5 ADD SWAP2 POP POP SWAP3 SWAP2 POP POP JUMP JUMPDEST PUSH0 PUSH1 0xC0 DUP3 ADD SWAP1 POP PUSH2 0xDCE PUSH0 DUP4 ADD DUP10 PUSH2 0xC2A JUMP JUMPDEST PUSH2 0xDDB PUSH1 0x20 DUP4 ADD DUP9 PUSH2 0xD64 JUMP JUMPDEST DUP2 DUP2 SUB PUSH1 0x40 DUP4 ADD MSTORE PUSH2 0xDED DUP2 DUP8 PUSH2 0xD83 JUMP JUMPDEST SWAP1 POP DUP2 DUP2 SUB PUSH1 0x60 DUP4 ADD MSTORE PUSH2 0xE01 DUP2 DUP7 PUSH2 0xD83 JUMP JUMPDEST SWAP1 POP PUSH2 0xE10 PUSH1 0x80 DUP4 ADD DUP6 PUSH2 0xC2A JUMP JUMPDEST PUSH2 0xE1D PUSH1 0xA0 DUP4 ADD DUP5 PUSH2 0xC2A JUMP JUMPDEST SWAP8 SWAP7 POP POP POP POP POP POP POP JUMP JUMPDEST PUSH32 0x4E487B7100000000000000000000000000000000000000000000000000000000 PUSH0 MSTORE PUSH1 0x22 PUSH1 0x4 MSTORE PUSH1 0x24 PUSH0 REVERT JUMPDEST PUSH0 PUSH1 0x2 DUP3 DIV SWAP1 POP PUSH1 0x1 DUP3 AND DUP1 PUSH2 0xE6C JUMPI PUSH1 0x7F DUP3 AND SWAP2 POP JUMPDEST PUSH1 0x20 DUP3 LT DUP2 SUB PUSH2 0xE7F JUMPI PUSH2 0xE7E PUSH2 0xE28 JUMP JUMPDEST JUMPDEST POP SWAP2 SWAP1 POP JUMP JUMPDEST PUSH32 0x596F75206D7573742073656E6420736F6D6520457468657220746F2072656769 PUSH0 DUP3 ADD MSTORE PUSH32 0x73746572206120426C6F636B4944000000000000000000000000000000000000 PUSH1 0x20 DUP3 ADD MSTORE POP JUMP JUMPDEST PUSH0 PUSH2 0xEDF PUSH1 0x2E DUP4 PUSH2 0xD73 JUMP JUMPDEST SWAP2 POP PUSH2 0xEEA DUP3 PUSH2 0xE85 JUMP JUMPDEST PUSH1 0x40 DUP3 ADD SWAP1 POP SWAP2 SWAP1 POP JUMP JUMPDEST PUSH0 PUSH1 0x20 DUP3 ADD SWAP1 POP DUP2 DUP2 SUB PUSH0 DUP4 ADD MSTORE PUSH2 0xF0C DUP2 PUSH2 0xED3 JUMP JUMPDEST SWAP1 POP SWAP2 SWAP1 POP JUMP JUMPDEST PUSH32 0x4163636F756E7420616C726561647920686173206120426C6F636B4944000000 PUSH0 DUP3 ADD MSTORE POP JUMP JUMPDEST PUSH0 PUSH2 0xF47 PUSH1 0x1D DUP4 PUSH2 0xD73 JUMP JUMPDEST SWAP2 POP PUSH2 0xF52 DUP3 PUSH2 0xF13 JUMP JUMPDEST PUSH1 0x20 DUP3 ADD SWAP1 POP SWAP2 SWAP1 POP JUMP JUMPDEST PUSH0 PUSH1 0x20 DUP3 ADD SWAP1 POP DUP2 DUP2 SUB PUSH0 DUP4 ADD MSTORE PUSH2 0xF74 DUP2 PUSH2 0xF3B JUMP JUMPDEST SWAP1 POP SWAP2 SWAP1 POP JUMP JUMPDEST PUSH32 0x4E487B7100000000000000000000000000000000000000000000000000000000 PUSH0 MSTORE PUSH1 0x11 PUSH1 0x4 MSTORE PUSH1 0x24 PUSH0 REVERT JUMPDEST PUSH0 PUSH2 0xFB2 DUP3 PUSH2 0xA0C JUMP JUMPDEST SWAP2 POP PUSH32 0xFFFFFFFFFFFFFFFFFFFFFFFFFFFFFFFFFFFFFFFFFFFFFFFFFFFFFFFFFFFFFFFF DUP3 SUB PUSH2 0xFE4 JUMPI PUSH2 0xFE3 PUSH2 0xF7B JUMP JUMPDEST JUMPDEST PUSH1 0x1 DUP3 ADD SWAP1 POP SWAP2 SWAP1 POP JUMP JUMPDEST PUSH32 0x4E487B7100000000000000000000000000000000000000000000000000000000 PUSH0 MSTORE PUSH1 0x41 PUSH1 0x4 MSTORE PUSH1 0x24 PUSH0 REVERT JUMPDEST PUSH0 DUP2 SWAP1 POP DUP2 PUSH0 MSTORE PUSH1 0x20 PUSH0 KECCAK256 SWAP1 POP SWAP2 SWAP1 POP JUMP JUMPDEST PUSH0 PUSH1 0x20 PUSH1 0x1F DUP4 ADD DIV SWAP1 POP SWAP2 SWAP1 POP JUMP JUMPDEST PUSH0 DUP3 DUP3 SHL SWAP1 POP SWAP3 SWAP2 POP POP JUMP JUMPDEST PUSH0 PUSH1 0x8 DUP4 MUL PUSH2 0x1078 PUSH32 0xFFFFFFFFFFFFFFFFFFFFFFFFFFFFFFFFFFFFFFFFFFFFFFFFFFFFFFFFFFFFFFFF DUP3 PUSH2 0x103D JUMP JUMPDEST PUSH2 0x1082 DUP7 DUP4 PUSH2 0x103D JUMP JUMPDEST SWAP6 POP DUP1 NOT DUP5 AND SWAP4 POP DUP1 DUP7 AND DUP5 OR SWAP3 POP POP POP SWAP4 SWAP3 POP POP POP JUMP JUMPDEST PUSH0 DUP2 SWAP1 POP SWAP2 SWAP1 POP JUMP JUMPDEST PUSH0 PUSH2 0x10BD PUSH2 0x10B8 PUSH2 0x10B3 DUP5 PUSH2 0xA0C JUMP JUMPDEST PUSH2 0x109A JUMP JUMPDEST PUSH2 0xA0C JUMP JUMPDEST SWAP1 POP SWAP2 SWAP1 POP JUMP JUMPDEST PUSH0 DUP2 SWAP1 POP SWAP2 SWAP1 POP JUMP JUMPDEST PUSH2 0x10D6 DUP4 PUSH2 0x10A3 JUMP JUMPDEST PUSH2 0x10EA PUSH2 0x10E2 DUP3 PUSH2 0x10C4 JUMP JUMPDEST DUP5 DUP5 SLOAD PUSH2 0x1049 JUMP JUMPDEST DUP3 SSTORE POP POP POP POP JUMP JUMPDEST PUSH0 PUSH0 SWAP1 POP SWAP1 JUMP JUMPDEST PUSH2 0x1101 PUSH2 0x10F2 JUMP JUMPDEST PUSH2 0x110C DUP2 DUP5 DUP5 PUSH2 0x10CD JUMP JUMPDEST POP POP POP JUMP JUMPDEST JUMPDEST DUP2 DUP2 LT ISZERO PUSH2 0x112F JUMPI PUSH2 0x1124 PUSH0 DUP3 PUSH2 0x10F9 JUMP JUMPDEST PUSH1 0x1 DUP2 ADD SWAP1 POP PUSH2 0x1112 JUMP JUMPDEST POP POP JUMP JUMPDEST PUSH1 0x1F DUP3 GT ISZERO PUSH2 0x1174 JUMPI PUSH2 0x1145 DUP2 PUSH2 0x101C JUMP JUMPDEST PUSH2 0x114E DUP5 PUSH2 0x102E JUMP JUMPDEST DUP2 ADD PUSH1 0x20 DUP6 LT ISZERO PUSH2 0x115D JUMPI DUP2 SWAP1 POP JUMPDEST PUSH2 0x1171 PUSH2 0x1169 DUP6 PUSH2 0x102E JUMP JUMPDEST DUP4 ADD DUP3 PUSH2 0x1111 JUMP JUMPDEST POP POP JUMPDEST POP POP POP JUMP JUMPDEST PUSH0 DUP3 DUP3 SHR SWAP1 POP SWAP3 SWAP2 POP POP JUMP JUMPDEST PUSH0 PUSH2 0x1194 PUSH0 NOT DUP5 PUSH1 0x8 MUL PUSH2 0x1179 JUMP JUMPDEST NOT DUP1 DUP4 AND SWAP2 POP POP SWAP3 SWAP2 POP POP JUMP JUMPDEST PUSH0 PUSH2 0x11AC DUP4 DUP4 PUSH2 0x1185 JUMP JUMPDEST SWAP2 POP DUP3 PUSH1 0x2 MUL DUP3 OR SWAP1 POP SWAP3 SWAP2 POP POP JUMP JUMPDEST PUSH2 0x11C5 DUP3 PUSH2 0xAB8 JUMP JUMPDEST PUSH8 0xFFFFFFFFFFFFFFFF DUP2 GT ISZERO PUSH2 0x11DE JUMPI PUSH2 0x11DD PUSH2 0xFEF JUMP JUMPDEST JUMPDEST PUSH2 0x11E8 DUP3 SLOAD PUSH2 0xE55 JUMP JUMPDEST PUSH2 0x11F3 DUP3 DUP3 DUP6 PUSH2 0x1133 JUMP JUMPDEST PUSH0 PUSH1 0x20 SWAP1 POP PUSH1 0x1F DUP4 GT PUSH1 0x1 DUP2 EQ PUSH2 0x1224 JUMPI PUSH0 DUP5 ISZERO PUSH2 0x1212 JUMPI DUP3 DUP8 ADD MLOAD SWAP1 POP JUMPDEST PUSH2 0x121C DUP6 DUP3 PUSH2 0x11A1 JUMP JUMPDEST DUP7 SSTORE POP PUSH2 0x1283 JUMP JUMPDEST PUSH1 0x1F NOT DUP5 AND PUSH2 0x1232 DUP7 PUSH2 0x101C JUMP JUMPDEST PUSH0 JUMPDEST DUP3 DUP2 LT ISZERO PUSH2 0x1259 JUMPI DUP5 DUP10 ADD MLOAD DUP3 SSTORE PUSH1 0x1 DUP3 ADD SWAP2 POP PUSH1 0x20 DUP6 ADD SWAP5 POP PUSH1 0x20 DUP2 ADD SWAP1 POP PUSH2 0x1234 JUMP JUMPDEST DUP7 DUP4 LT ISZERO PUSH2 0x1276 JUMPI DUP5 DUP10 ADD MLOAD PUSH2 0x1272 PUSH1 0x1F DUP10 AND DUP3 PUSH2 0x1185 JUMP JUMPDEST DUP4 SSTORE POP JUMPDEST PUSH1 0x1 PUSH1 0x2 DUP9 MUL ADD DUP9 SSTORE POP POP POP JUMPDEST POP POP POP POP POP POP JUMP JUMPDEST DUP3 DUP2 DUP4 CALLDATACOPY PUSH0 DUP4 DUP4 ADD MSTORE POP POP POP JUMP JUMPDEST PUSH0 PUSH2 0x12A4 DUP4 DUP6 PUSH2 0xD73 JUMP JUMPDEST SWAP4 POP PUSH2 0x12B1 DUP4 DUP6 DUP5 PUSH2 0x128B JUMP JUMPDEST PUSH2 0x12BA DUP4 PUSH2 0xAE0 JUMP JUMPDEST DUP5 ADD SWAP1 POP SWAP4 SWAP3 POP POP POP JUMP JUMPDEST PUSH0 PUSH1 0x80 DUP3 ADD SWAP1 POP DUP2 DUP2 SUB PUSH0 DUP4 ADD MSTORE PUSH2 0x12DE DUP2 DUP9 DUP11 PUSH2 0x1299 JUMP JUMPDEST SWAP1 POP DUP2 DUP2 SUB PUSH1 0x20 DUP4 ADD MSTORE PUSH2 0x12F3 DUP2 DUP7 DUP9 PUSH2 0x1299 JUMP JUMPDEST SWAP1 POP PUSH2 0x1302 PUSH1 0x40 DUP4 ADD DUP6 PUSH2 0xC2A JUMP JUMPDEST PUSH2 0x130F PUSH1 0x60 DUP4 ADD DUP5 PUSH2 0xC2A JUMP JUMPDEST SWAP8 SWAP7 POP POP POP POP POP POP POP JUMP INVALID LOG2 PUSH5 0x6970667358 0x22 SLT KECCAK256 CREATE2 0x2F PUSH5 0xEAF2D3E282 PUSH10 0xC9B1540D7D28AB45A4DB EQ RETURNDATASIZE 0x28 DUP9 CHAINID 0xD7 0xFC PUSH28 0xA45AF145E364736F6C634300081E0033000000000000000000000000 "
				},
				"gasEstimates": {
					"creation": {
						"codeDepositCost": "988800",
						"executionCost": "23138",
						"totalCost": "1011938"
					},
					"external": {
						"blocks(uint256)": "infinite",
						"getBlock(uint256)": "infinite",
						"getContractBalance()": "334",
						"getMyId(address)": "2852",
						"hasBlockId(address)": "2877",
						"hasRegistered(address)": "2892",
						"nextId()": "2491",
						"ownerToId(address)": "2868",
						"registerBlock(string,string)": "infinite"
					}
				},
				"methodIdentifiers": {
					"blocks(uint256)": "f25b3f99",
					"getBlock(uint256)": "04c07569",
					"getContractBalance()": "6f9fb98a",
					"getMyId(address)": "28ed8400",
					"hasBlockId(address)": "e0dfa8fa",
					"hasRegistered(address)": "a0d03526",
					"nextId()": "61b8ce8c",
					"ownerToId(address)": "e729e3a4",
					"registerBlock(string,string)": "360e2cb4"
				}
			},
			"storageLayout": {
				"storage": [
					{
						"astId": 30,
						"contract": "BlockID.sol:BlockID",
						"label": "nextId",
						"offset": 0,
						"slot": "0",
						"type": "t_uint256"
					},
					{
						"astId": 35,
						"contract": "BlockID.sol:BlockID",
						"label": "blocks",
						"offset": 0,
						"slot": "1",
						"type": "t_mapping(t_uint256,t_struct(Block)28_storage)"
					},
					{
						"astId": 39,
						"contract": "BlockID.sol:BlockID",
						"label": "hasBlockId",
						"offset": 0,
						"slot": "2",
						"type": "t_mapping(t_address,t_bool)"
					},
					{
						"astId": 43,
						"contract": "BlockID.sol:BlockID",
						"label": "ownerToId",
						"offset": 0,
						"slot": "3",
						"type": "t_mapping(t_address,t_uint256)"
					}
				],
				"types": {
					"t_address": {
						"encoding": "inplace",
						"label": "address",
						"numberOfBytes": "20"
					},
					"t_bool": {
						"encoding": "inplace",
						"label": "bool",
						"numberOfBytes": "1"
					},
					"t_mapping(t_address,t_bool)": {
						"encoding": "mapping",
						"key": "t_address",
						"label": "mapping(address => bool)",
						"numberOfBytes": "32",
						"value": "t_bool"
					},
					"t_mapping(t_address,t_uint256)": {
						"encoding": "mapping",
						"key": "t_address",
						"label": "mapping(address => uint256)",
						"numberOfBytes": "32",
						"value": "t_uint256"
					},
					"t_mapping(t_uint256,t_struct(Block)28_storage)": {
						"encoding": "mapping",
						"key": "t_uint256",
						"label": "mapping(uint256 => struct BlockID.Block)",
						"numberOfBytes": "32",
						"value": "t_struct(Block)28_storage"
					},
					"t_string_storage": {
						"encoding": "bytes",
						"label": "string",
						"numberOfBytes": "32"
					},
					"t_struct(Block)28_storage": {
						"encoding": "inplace",
						"label": "struct BlockID.Block",
						"members": [
							{
								"astId": 17,
								"contract": "BlockID.sol:BlockID",
								"label": "id",
								"offset": 0,
								"slot": "0",
								"type": "t_uint256"
							},
							{
								"astId": 19,
								"contract": "BlockID.sol:BlockID",
								"label": "creator",
								"offset": 0,
								"slot": "1",
								"type": "t_address"
							},
							{
								"astId": 21,
								"contract": "BlockID.sol:BlockID",
								"label": "cid",
								"offset": 0,
								"slot": "2",
								"type": "t_string_storage"
							},
							{
								"astId": 23,
								"contract": "BlockID.sol:BlockID",
								"label": "title",
								"offset": 0,
								"slot": "3",
								"type": "t_string_storage"
							},
							{
								"astId": 25,
								"contract": "BlockID.sol:BlockID",
								"label": "timestamp",
								"offset": 0,
								"slot": "4",
								"type": "t_uint256"
							},
							{
								"astId": 27,
								"contract": "BlockID.sol:BlockID",
								"label": "fee",
								"offset": 0,
								"slot": "5",
								"type": "t_uint256"
							}
						],
						"numberOfBytes": "192"
					},
					"t_uint256": {
						"encoding": "inplace",
						"label": "uint256",
						"numberOfBytes": "32"
					}
				}
			},
			"userdoc": {
				"kind": "user",
				"methods": {},
				"version": 1
			}
		}
	}
}